:1000000000000120F52500002D260000FD15000050
:10001000312600000D16000015160000000000003B
:100020000000000000000000000000003726000073
:1000300039260000000000003B2600003D2600009D
:100040003F2600003F2600003F2600003F2600001C
:100050003F2600003F2600003F2600003F2600000C
:100060003F2600003F2600003F2600003F260000FC
:100070003F260000595000003F2600003F260000A8
:100080003F2600003F2600003F2600003F260000DC
:100090003F2600003F2600003F2600003F260000CC
:1000A0003F2600003F2600003F2600003F260000BC
:1000B0003F2600003F260000000000000000000076
:1000C0003F2600003F2600003F2600003F2600009C
:1000D0003F2600003F2600003F26000010B5054CDB
:1000E000237833B9044B13B10448AFF300800123E4
:1000F000237010BDE80B002000000000BCED0000E4
:1001000008B5034B1BB103490348AFF3008008BD9A
:1001100000000000EC0B0020BCED0000154B002B94
:1001200008BF134B9D46A3F5803A00218B460F462E
:100130001348144A121A06F0D9FF0F4B002B00D0B7
:1001400098470E4B002B00D0984700200021040058
:100150000D000D48002802D00C4801F0B3FF06F056
:10016000CFFA2000290002F030FA01F0A8FF00BF0A
:10017000000008000000012000000000BF25000072
:10018000E80B0020E8120020C5200000000000005D
:10019000012800D070474FF6FF739942FAD130B56D
:1001A00087B0134DC2230593BB23049342230393CB
:1001B00055230293C02301931423009302230122A9
:1001C0001146284605F04AF90A4C02221F21204612
:1001D00004F0B0FF084A0949204601F06EFF0022F2
:1001E000009223462946064805F034FA07B030BD90
:1001F000180C0020D00C0020E000002005020000B8
:10020000040C002038B504460A4B03600A4BC36156
:1002100003F12002C0F818218C33C0F81C3100F122
:100220001C0500F58C7001F087F9284600F0C0FA33
:10023000204638BDC0EA000080E0000008B505F0A7
:1002400029FA05F049FAFCE708B54FF6FF710120DD
:10025000FFF79EFF08BD08B50368984708BD0B6807
:100260000360704770476FF01500704708B503686A
:100270001B69984708BD08B503689B69984708BD86
:1002800008B503689B6A984708BD09B1002070470C
:100290006FF018007047012070476FF0150070472D
:1002A0006FF0150070471120704770477047A0F13C
:1002B000FC00FFF7FBBF7047A0F1FC00FFF7FBBF9E
:1002C00008B500F0BFFA08BDA0F1FC00FFF7F8BFC9
:1002D00008B500F0BCFA08BDA0F1FC00FFF7F8BFBC
:1002E00010B50446094B03F10802026003F128022D
:1002F000C0F8FC209433C0F80031FC3001F01CF948
:10030000204600F055FA204610BD00BF78E00000FE
:1003100010B50446094B03F1080140F8FC1C03F139
:10032000280244F8FC299433C4F8003101F004F9A0
:10033000204600F03DFA204610BD00BF78E00000E6
:1003400010B5A0F58074094B03F10802226003F197
:10035000280240F8042C9433C4F80031043801F02A
:10036000EBF8204600F024FA204610BD78E00000AB
:1003700010B504460B4B03F10802026003F128029A
:10038000C0F8FC209433C0F80031FC3001F0D4F800
:10039000204600F00DFA4FF48C71204602F002F96D
:1003A000204610BD78E0000010B5A0F580740C4B1D
:1003B00003F10802226003F1280240F8042C943370
:1003C000C4F80031043801F0B7F8204600F0F0F925
:1003D0004FF48C71204602F0E5F8204610BD00BFB6
:1003E00078E0000010B504460B4B03F1080140F81B
:1003F000FC1C03F1280244F8FC299433C4F80031B2
:1004000001F09AF8204600F0D3F94FF48C712046A1
:1004100002F0C8F8204610BD78E0000038B5044668
:100420001D46049B00F080F8294604F1FC0001F011
:1004300055F8064B03F10802226003F12802C4F8C4
:10044000FC209433C4F80031204638BD78E0000029
:100450007047704730B583B0436884680169C068ED
:1004600002AA02E9030063B1009A62B101994D103A
:1004700003EB610011F0010F01D05B599A5821463E
:10048000904703B030BD019911F0010FF9D0EDE7AD
:1004900070B5044600F14C0590F9DF2090F9DE10AC
:1004A000284603F04FF8D4F8E460DEB1D4F8E83021
:1004B0005A1004EB630013F0010F01D0A3589E59AA
:1004C00094F9EE3094F9ED2094F8EC10B047D4F89C
:1004D000D810284603F004F922460549284603F0BF
:1004E0007BF970BDD4F8E83013F0010FEFD0DDE7F1
:1004F000F504000008B501F10C0300EB03135B6881
:1005000033B10901B8310844C36813B11B68984777
:1005100008BD40F23B220249024801F0D1F900BF78
:1005200014E1000034E100002DE9F04389B00446F5
:10053000884617469946494B0360494B436000255E
:100540008560069507956B4608AA12E9030083E8C3
:1005500003002461656104F1180282E80300414B45
:10056000E360256284F8245084F82550A562E56292
:1005700025636563A563E5632564656484F8485075
:1005800084F849506C22294604F14C0006F0AEFD77
:1005900004F1B8000126002E07DB00250560456048
:1005A0008560C5601030013EF5E7C4F8D89001239E
:1005B00084F8DC3084F8DD3084F8DE8084F8DF7085
:1005C0000025C4F8E050C4F8E450C4F8E85084F8BA
:1005D000EC50FF2384F8ED3084F8EE30C4F8F0508E
:1005E000C4F8F450C4F8F85007E0059BF360059B8D
:1005F00013B19B6802A898470135012D1CD82F0123
:10060000B837E61902AB00220292039204920592D7
:100610009E42ECD0F36813B19B68304698470023A4
:10062000E3517360B360F360059B002BDDD05B6822
:1006300002A930469847D8E7A3685A1004EB630034
:1006400013F0010F07D0A2586368D358984720468B
:1006500009B0BDE8F0836368F8E700BF44E100003B
:10066000910400005504000038B50446054655F8CD
:100670004C3B1B689847284603F06CF905462368F5
:100680005B6820469847284638BD2DE9F04184B084
:1006900004460F46154603681B68984794F8DC30FB
:1006A00003B1E5B194F8DD300BB1012D17D02D0168
:1006B000B8356619BE423FD0F36813B19B68304627
:1006C0009847002363517360B360F360FB681BB10C
:1006D0005B68394630469847FB68F3602CE001F0D0
:1006E000AFF9FB6893B305F10C0304EB03135B68EC
:1006F0004BB34FEA051808F1B80804EB0806BE42F0
:1007000012D0F36813B19B6830469847002344F831
:1007100008307360B360F360FB681BB15B683946F7
:1007200030469847FB68F3600122294604F14C00EB
:1007300003F062F801F09CF923685B682046984753
:1007400004B0BDE8F08101F0CBFAD2E705F10C036B
:1007500004EB03135B680BB101F0DEFA2F01B8372D
:10076000E6196B46002200925A609A60DA609E4257
:1007700011D0F36813B19B68304698470023E351CA
:100780007360B360F360039B1BB15B6869463046DE
:100790009847039BF360039B13B19B686846984797
:1007A0000022294604F14C0003F026F8C2E70000BD
:1007B00070B584B004461D4B0360002500E0013590
:1007C000012D10DC00230093019302930393EAB2FE
:1007D00069462046FFF759FF039B002BEFD09B682B
:1007E00068469847EBE714F1B8060BD004F1D8053A
:1007F000AE4207D0103DEB68002BF9D09B6828462D
:100800009847F5E704F13800636C0BB19B68984793
:1008100004F12800636B0BB19B689847206A08B10C
:1008200000F062FC204604B070BD00BF44E100004F
:1008300010B50446FFF7BCFFFC21204601F0B2FED4
:10084000204610BD08B54C3002F0F4FF08BD10B5CD
:100850000C464C3003F03EF8204610BD38B5044637
:100860008268C568016A436A521845EB030300F0C9
:10087000EFF8636B2BB104F12800C36813B11B6858
:10088000984738BD40F23B220149024801F018F870
:1008900014E1000034E1000010B5044600F0C0F897
:1008A000074B236000220023C4E908230023A3622E
:1008B000E36223636363012384F83830204610BD6C
:1008C0005CE1000030B585B0044601F0B9F820467F
:1008D00000F0C9F8636B13B194F8383023BB04F10E
:1008E00028056B46002200925A609A60DA609D42A9
:1008F00011D0EB6813B19B68284698470023A36288
:100900006B60AB60EB60039B1BB15B68694628467C
:100910009847039BEB60039B13B19B68684698471D
:1009200001F0A6F805B030BD01F0F6F9D7E70000F8
:1009300038B504460546074B45F8283BFFF7C2FF8C
:10094000636B13B19B6828469847204600F092F8E5
:10095000204638BD5CE1000038B504460546094B29
:1009600045F8283BFFF7AEFF636B13B19B68284641
:100970009847204600F07EF84021204601F012FE04
:10098000204638BD5CE1000070B5044615461E46A1
:1009900001F056F8204600F066F825626662A0690C
:1009A00000F060FB421941EB0603204600F050F8CE
:1009B00001F05EF870BD2DE9F04104460E46904608
:1009C0001F4601F03DF8636BF3B104F12805B54211
:1009D00011D0EB6813B19B68284698470023A362A7
:1009E0006B60AB60EB60F3681BB15B683146284617
:1009F0009847F368EB6042463B462046FFF7C4FF4A
:100A000001F036F8BDE8F08194F83830002BDCD0E6
:100A100001F066F9D9E708B503689B68984708BDF7
:100A200010B50446084B036000220023C0E90223EE
:100A300000230361436100F03FFBA061034900F024
:100A400081FA204610BD00BF70E10000170A0000C7
:100A500000B583B0009000F10801806900F0B4FA9D
:100A600003B05DF804FB08B500F10801806900F0EF
:100A7000DFFA08BD10B50446024B0360FFF7F3FF31
:100A8000204610BD70E1000008B503681B69012213
:100A90000021984708BD08B503681B69002211466C
:100AA000984708BD70B504460D46164602F046F953
:100AB000B5F1FF3F00D170BD94F90030B3F1FF3FB5
:100AC00010D0A6B1012202FA03F34FF0A042C2F8FF
:100AD00008350121204602F079F90021204602F074
:100AE00053F9E8E720220649064800F0E9FE012212
:100AF00002FA03F34FF0A042C2F80C35E9E700BF59
:100B00007CE10000B8E1000008B50022FFF7CAFF51
:100B100008BD4368196070472DE9F84F446894F8A0
:100B20003A30002B72D1054603685B6898476B68C2
:100B30001B6A83426AD0236AC31AE26803EA020C82
:100B4000634600222062A56855498D4257D094F82B
:100B50003BE0BEF1000F5BD04FEA4C114FEADC6086
:100B6000B1EB0C0160EB0200460246EAD1564F029F
:100B7000304617EB0C0142EB0000870147EA916712
:100B80008E01711A67EB000011EB0C0142EB0000C3
:100B9000CEF12006AEF1200221FA0EF300FA06F69D
:100BA000334320FA02F2134320FA0EF2AEF1200A88
:100BB000CEF1200C02FA0EF603FA0AFA46EA0A0609
:100BC00023FA0CFC46EA0C0603FA0EF7C91B60EB8D
:100BD0000600A66AE76A11EB060840EB0709C4E9BC
:100BE0000A890026B14508BFA84508D3013342F160
:100BF0000002B8EB050069EB0601A062E162206B20
:100C0000616BC01842EB010120636163BDE8F88F9E
:100C10004FEA4C1A4FEADC6BBAEB0C0A6BEB020B97
:100C20004FEA4B2141EADA514FEA4A2010EB0C0A15
:100C300041EB020B4FEA8B1040EA9A604FEA8A11AF
:100C4000B1EB0A0A60EB0B0B1AEB0C0A4BEB020B35
:100C50004FF000092A464B46504659460DF07EF8A3
:100C600003460A46A5FB000105FB0211BAEB000A88
:100C70006BEB010BA16AE06A1AEB01064BEB000774
:100C8000C4E90A674F4508BFAE42B8D3013342F109
:100C90000002701B67EB0901A062E162AFE700BFD1
:100CA00040420F002DE9F8434468216B606B561AEF
:100CB00063EB00072569D4E90623BB4208BFB242B3
:100CC00026D3A3681F4A93421FD094F83B202AB32F
:100CD000A2F1200CC2F1200307FA02F106FA0CFC83
:100CE00041EA0C0126FA03F3194306FA02F0164E04
:100CF000144A002380194FF0000646EB01010DF065
:100D00002DF8854204D3054602E0B54200D33546AE
:100D1000206A2844E3681840BDE8F883A3FB0689ED
:100D200003FB07990848074A002318EB00004FF01F
:100D3000000149EB01010DF011F88542E8D30546A9
:100D4000E6E700BF40420F003F420F00824209D950
:100D50008A4203D9884203D9012070470120704795
:100D600000207047884203D98A4203D90020704787
:100D7000002070470120704770B5456895F83A30FB
:100D80001BB9044695F8393003B170BDFFF7C4FEB6
:100D9000626853684BB3D2E90C01D3E9002399424E
:100DA00008BF904217D22046FFF77CFF06462B6A09
:100DB000834214D023681B69984723685B6898476F
:100DC00001463246286AFFF7C1FF0028DDD02368BC
:100DD0005B699847D9E723685B699847D5E740F294
:100DE0001B120649064800F06BFD286A2B6918445F
:100DF000EA6823681B6910409847C6E7D0E1000005
:100E0000F0E10000436893F83820002A40F0918018
:100E10002DE9F04F85B0054693F83A30002B7ED18E
:100E200003681B6898472B68DB699847066846B1DA
:100E30001F246CB10123A340B34209D0013CE4B2AA
:100E4000F7E70022009213463A493B4800F028FF9A
:100E5000D0F804A0AAF104031C2B63D807279F40F5
:100E60007A01FB0ED21B63F10003590241EAD25111
:100E70005002C21941F10003990141EA92619001C7
:100E8000B0EB020861EB030918EB070849F1000910
:100E900018EB060849F100093246002318F1FF302B
:100EA00049F1FF310CF05AFF814603916B684FF016
:100EB0000008C3F800806B68C3F804802B685B6887
:100EC000D5F804B09847CBF820006B6800200021CB
:100ED000C3E90A016B689E606B6883F83B4001249C
:100EE00004FA0AFA6A680AF1FF33D3606B681F617B
:100EF0006B68C3F81890039ADA616B68C3E90C0158
:100F00006B6883F839806B6883F83A806B6883F884
:100F100038402846FFF700FE2846FFF72DFF05B0B2
:100F2000BDE8F08F0022009213460449044800F007
:100F3000B7FE704714E200000E01048030E20000AA
:100F40000501048038B504460D46FFF75BFF00F04D
:100F500077FD29462046FFF7DCFD00F089FD38BD0E
:100F600070B5044600F06CFD2368DB689847636841
:100F700093F83A20DAB9012283F8392063685B6874
:100F8000C3B12046FFF7C8FD65686E68D6E9002347
:100F9000D5E90C01994208BF90420BD3F3686B600E
:100FA00063681B68002BE9D0B0689847E6E700F05B
:100FB0005FFD08E06368002283F839202046FFF7D0
:100FC000DBFE00F055FD70BD2DE9D84281460C4690
:100FD00016461F4600F034FD4846FFF79DFDC4E964
:100FE0000067069BA360D9F804305B68002243B118
:100FF000D3E900018F4208BF864202D31A46DB685C
:10100000F5E7E36082B1D4603AB1D9F80430D3E9AE
:101010000C23BB4208BFB24202D34846FFF7ACFEE6
:1010200000F026FDBDE8D882D9F804305C60EBE71B
:1010300038B505460C4600F003FD6A685368A342C4
:1010400005D063B1DA68A24207D01346F9E7E36836
:1010500053602846FFF790FE01E0E268DA6000F096
:1010600007FD38BD38B50446FFF7CCFE00F0E8FCBC
:101070002046FFF751FD6368D3E90C4500F0F8FC0A
:101080002046294638BD08B5FFF7ECFF08BD000033
:1010900008B5034B00221A7002F042FD08BD00BFE4
:1010A0006412002008B502F09DFC024B01221A7068
:1010B00008BD00BF64120020004870476CE20000C9
:1010C00008B5034B1B680BB10248984708BD00BF29
:1010D000E40000206CE2000008B591F90C2091F9C1
:1010E000041002F02FFA08BD08B5024B1B6803B1CB
:1010F000984708BD480E002008B51B4B036000232D
:10110000436081600273194B1B6873B1184A9342A4
:1011100013D1B9B1174A116841601060134A1268BF
:101120009AB1134B9A4219D108BD104B1B68002B82
:10113000ECD10E4A131D1360E8E78B220E490F48CD
:1011400000F0BEFB00224260E8E7084A1268002A6D
:10115000E7D1064A111D11601A46E2E78B220649C3
:10116000064800F0ADFB00BFF0E20000500E00208A
:10117000540E00204C0E002098E20000BCE200005B
:101180002DE9F04107460E463A4BD3F80080B8F1FE
:10119000000F05D0384B98450CD1384B1C6817E030
:1011A000D3F80080B8F1000FF4D11A46043313606D
:1011B0009846EFE78B223249324800F081FB2D4BF5
:1011C0001B68CBB92B4B1A1D1A60434614E06468A8
:1011D000D4B1A568002DFAD0284606F0D1FDB04262
:1011E000F5D132463946284605F04AFE0028EED1B0
:1011F000204B1B68002BE2D01F4A934212D08B2257
:101200001F49204800F05CFB072E05D132463946C5
:101210001D4805F035FE40B1164B1B68E3B1164A78
:10122000934222D12046BDE8F081124B1B682BB1BE
:10123000114A93420BD1154B1C68F3E70D4B1B6809
:10124000002BF5D10B4B1A1D1A604346F0E78B2299
:101250000B490C4800F034FB064B1B68002BDED119
:10126000044B1A1D1A604346D9E78B2204490548EE
:1012700000F026FB500E0020540E00204C0E0020E3
:1012800098E20000BCE20000E0E20000580E0020FE
:10129000007B704710B50446244B0360244B19684B
:1012A000F1B1244B994221D1A3684BB1224B1B6869
:1012B000A34220D01A465B68A342FBD16368536007
:1012C0001E4B1B68A3421AD0194B1B68DBB1194A8D
:1012D000934221D12046FFF7DBFF10B3204610BD1B
:1012E00019680029DDD1191D1960DAE78B2214492C
:1012F000144800F0E5FA62680F4B1A60E0E70F4B04
:1013000000221A60E0E70A4B1B68002BDFD1084B74
:101310001A1D1A600B46DAE78B220949094800F0CA
:10132000CFFA201F00F0E2FDD8E700BFF0E2000096
:10133000500E0020540E00204C0E0020580E0020AD
:1013400098E20000BCE2000010B50446FFF7A2FFDF
:101350001021204601F026F9204610BD00207047DC
:101360000020704770B5044603681B690122002104
:101370009847051E0EDB23681B69022200212046C8
:101380009847064623681B6900222946204698474D
:10139000304670BD2E46FBE770B504460E4600256C
:1013A000056045600E49304606F058FD3044206027
:1013B000294623681A782F2A04D02AB10131013333
:1013C0002360F6E70133236021B1FFF7D9FE6060A7
:1013D000204670BD2A220349034800F071FA00BF7D
:1013E00054E3000058E3000080E300000068704709
:1013F000406838B108B5FFF74BFF012814BF002043
:10140000012008BD0020704710B50446FFF7F0FF2B
:1014100018B1606810B1043800E0002010BD4068C9
:1014200030B108B5FFF734FFB0FA80F0400908BDCD
:101430000020704710B50446FFF7F1FF18B160684F
:1014400010B1043800E0002010BD4068003818BF1B
:10145000012070477047704700207047F8B5054677
:101460000F468E180368DB6D98473C46B44208D09F
:101470002B685B6D14F8011B28469847B0F1FF3FBD
:10148000F4D12B681B6E28469847E01BF8BDF8B5D1
:1014900005460F468E180368DB6D98473C46B442FC
:1014A0000BD02B689B6D28469847B0F1FF3F04D0C6
:1014B000234603F8010B1C46F1E72B681B6E2846F8
:1014C0009847E01BF8BD0020704700207047704728
:1014D00000207047002070470020704710B582B090
:1014E0000446104B40F8043B0022FFF705FE0E4B6C
:1014F00003F10802226074336360002363610B49C7
:10150000204600F0BEFF606120B100F0DDFD204606
:1015100002B010BD0023009302460549054800F0C3
:10152000BFFB00BF00E3000010E400008CE30000FC
:1015300090E300001901018010B50446094B03F146
:101540000802026074334360406904F0A1F9064B5D
:1015500023605C33204640F8043FFFF79BFE2046A3
:1015600010BD00BF10E40000ACE3000038B5044635
:101570000D460368DB6D984701220021606904F085
:1015800057FD6169284604F0CBFB054623681B6EB6
:1015900020469847284638BD38B504460368DB6DB9
:1015A0009847606904F042FA606904F051FA054610
:1015B00023681B6E20469847284638BD0EB470B588
:1015C00083B0044607AD55F8046B0368DB6D98479C
:1015D000019501220021606904F02AFD019A31463B
:1015E000606908F043FA054623681B6E2046984759
:1015F000284603B0BDE8704003B070474FF01003B9
:1016000000F00CB84FF0200300F008B84FF03003A2
:1016100000F004B84FF0400300F000B8EFF308808A
:101620004FF0040172460A4201D0EFF309809C4654
:10163000254B196802680A60043142680A60043167
:1016400082680A600431C2680A600431F0C147460A
:101650000F6004314F460F60043157460F6004316C
:101660005F460F60043102690A60083142690A600E
:10167000043182690A600431C2690A600431034698
:1016800020334FF40076324200D0043375464FF0D9
:101690001006354200D148330C46103C2360EFF36E
:1016A00009820A600431EFF308820A60043172464D
:1016B0000A600431EFF314820A606046024B196835
:1016C00000F08EF8FEE7000064E6000070B584B01C
:1016D000002407E0344B53F824202146334800F01F
:1016E00093F901340C2CF5DD2F498B6C02934B6C74
:1016F00001930B6C0093CB6B8A6B496B2C4800F009
:1017000083F92C4C21682C4800F07EF9E16AA26A2A
:10171000A36AA06A000C256BE66B02960195009007
:10172000C3F30723D2B2254800F06EF9A36A13F081
:10173000800F15D11F4B9B6A13F4004F15D11A4B24
:10174000DB6C13F0080F1AD01D4800F05DF9164B42
:101750001B6D13F0010F0ED01A4800F055F914E07C
:10176000616B194800F050F9E4E7124B996B174888
:1017700000F04AF9E3E7164800F046F905E015489D
:1017800000F042F9124800F03FF9074BDB6C13F010
:10179000040F04D0104800F037F904B070BD0F48B2
:1017A00000F032F9F9E700BF681200208CE4000075
:1017B0009CE4000000ED00E0ECE40000FCE400002C
:1017C0006CE500007CE500004CE500005CE50000F5
:1017D0008CE50000A0E50000B0E50000BCE50000DD
:1017E00030B583B005460C461B4B0121D3E84F2F83
:1017F000C3E8401FD2B23AB100250023009322462D
:101800001649284600F04CFA154800F0FDF8302D36
:1018100018D0402D1BD0202D04D0124800F0F4F831
:10182000114D03E0114800F0EFF8114D114800F0A0
:10183000EBF8FFF74BFF104800F0E6F8064B0022EC
:101840001A70DAE70D4800F0DFF80D4DEEE70D48AD
:1018500000F0DAF80C4DE9E7BC12002054E6000075
:10186000C8E500001CE600003D01FF80F4E5000033
:101870003E01FF8028E6000034E6000004E6000098
:101880003F01FF8010E600004001FF8008B504F032
:10189000EDFF08BD08B57246FFF7F8FF08BD08B5B3
:1018A00005F0C4FC08BD08B504F0BCFA08BD08B5D5
:1018B0007246FFF7F8FF08BD08B503F04DFF08BDFD
:1018C00000B583B00B46009200220146014800F0AB
:1018D000E7F900BF4401FF8000B583B000F0B0F825
:1018E000112101A8FFF710F90024032C27DC9DF932
:1018F0000420B2F1FF3F18D0012393404FF0A042E3
:10190000C2F80835234800F066FE9DF90420B2F1C4
:10191000FF3F0FD0012393404FF0A042C2F80C3597
:101920001C4800F058FE0134DFE720221A491B480A
:10193000FFF7C6FF202218491848FFF7C1FF00240F
:10194000032CD1DC9DF90420B2F1FF3F18D0012314
:1019500093404FF0A042C2F80835114800F03BFE1A
:101960009DF90420B2F1FF3F0FD0012393404FF0C7
:10197000A042C2F80C350A4800F02DFE0134DFE722
:10198000202205490548FFF79BFF20220249034812
:10199000FFF796FFF04902007CE10000B8E100008B
:1019A000801A060010B5044600220146022000F00D
:1019B00047FC00F045F8204606F0E2F902462146D1
:1019C000022000F03DFC00F053F810BD00B5A3B0BC
:1019D00002460B46842101A808F0CEF8034683286E
:1019E00006D9084A1068CDF8830012798DF887204F
:1019F000002B02DC23B05DF804FB01A8FFF7D2FF47
:101A0000F8E700BF68E600000FB400B583B004A992
:101A100051F8040B0191FFF7D9FF03B05DF804EB17
:101A200004B07047EFF3108313F0010F0CBF0120D7
:101A300000207047EFF30580003818BF0120704781
:101A400008B501F085F8074B1B68B3F1FF3F03D0E1
:101A50000133044A136008BD3F2203490348FFF7DE
:101A60002FFF00BF5C0E002070E600009CE6000027
:101A700008B5054B1B681BB1013B034A136003B15A
:101A800008BD01F071F8FBE75C0E002030B58FB0A7
:101A90000D46041E00DB254C3022002102A805F073
:101AA00025FB01940395224B2344012B09D9214B9B
:101AB0009C4229D0033B9C4201D0002302E0012339
:101AC00000E0012313B3EB6B02936B6B0893FFF7FA
:101AD000B7FF194A136801331360012B1BD0174C51
:101AE00001AD0FCD0FC40FCD0FC40FCD0FC42B68A8
:101AF0002360134B1B6813B1A4F130009847FFF724
:101B0000B7FF00200FB030BD0123DBE7129B02932B
:101B100001AB0893DBE70B4C01AD0FCD0FC40FCD2C
:101B20000FC40FCD0FC42B682360D8E70101FF80DD
:101B3000C2FE007F4001FF80600E0020A00E00204A
:101B4000640E0020680E00202DE9F04104460F4687
:101B5000164698460168C1F34173032B16D08DB227
:101B6000C1F307432A462F48FFF74EFFA5F2311570
:101B7000132D11D8DFE805F00C2F34393E48434DC2
:101B80001010101010101010101010524D42E7E7F6
:101B9000A1682548FFF738FF3846FFF703FF616863
:101BA0002248FFF731FF4EB12148FFF7FBFE3046D8
:101BB000FFF7F8FE41461F48FFF726FFA1681E48C1
:101BC000FFF722FF21681D48FFF71EFF1C48FFF7A3
:101BD0001BFFBDE8F081A1681A48FFF715FFDBE79E
:101BE000A1681948FFF710FFD6E7A1681748FFF76B
:101BF0000BFFD1E7A1681648FFF706FFCCE7A16805
:101C00001448FFF701FFC7E7A1681348FFF7FCFE80
:101C1000C2E7A1681148FFF7F7FEBDE71048FFF7DC
:101C2000F3FEB9E7D0E6000024E70000D4E70000A7
:101C3000E8E70000F0E70000F4E7000008E8000033
:101C400054E800003CE700004CE700005CE70000BF
:101C500070E7000084E7000098E70000A8E70000B4
:101C6000C0E7000008B50D4B0121D3E84F2FC3E8B2
:101C7000401FD2B20028F6D12AB1FFF7E1FEBFF330
:101C80004F8F20BFFDE7FFF7D5FE10B9FFF7CAFE63
:101C900008B9FFF721FE012000F011FA9C0E002088
:101CA00080B582B01F460C4C0126D4E84F5FC4E8D3
:101CB000436FEDB20DB1FFF7D5FF88461146CDF861
:101CC00000E0049B3A46FFF7E1FE049B3A4641469A
:101CD0000248FFF739FFEEE7BC120020A00E0020FB
:101CE0000A4BD3E85F2F0132C3E8512F0029F7D107
:101CF00092B202B1704700B583B000230093034A4B
:101D0000128803490348FFF7CBFF00BFD40E002021
:101D100070E80000230104800B4BD3E85F2F013AE9
:101D2000C3E8512F0029F7D192B24FF6FF739A42C0
:101D300000D0704700B583B000230093024A128898
:101D400002490348FFF7ACFFD40E002094E80000DE
:101D5000240104806FF01C0070476FF0150070477D
:101D60000120704700207047002070477047000036
:101D700070B50E4615460024AC4205D2315D0348CD
:101D800001F0A8FD0134F7E7284670BD741000206B
:101D90000AB90020704710B50C46034801F04AFD0F
:101DA0002070012010BD00BF7410002038B58DB226
:101DB00011F0010F05D1002415F0100F09D12046B4
:101DC00038BD084801F0C6FD08B90024F4E7012435
:101DD000F2E7044801F0DEFD0028F0D044F01004E2
:101DE000EDE700BF7410002008B5094B53F8203010
:101DF0008B4205D10023064A42F82030184608BD20
:101E000003F0DAFC092303604FF0FF30F7E700BF6F
:101E1000E800002038B504460D4603F0CDFC6442CE
:101E20000460034B002243F825204FF0FF3038BDFB
:101E3000E800002010B5284B1C685CB1274B9C4281
:101E40000ED103203F2810DC254B53F8203063B11E
:101E50000130F7E71C68002CF0D11C1D1C60EDE779
:101E60008B2220492048FFF72BFD3F280BDC1C4B21
:101E70004FF0FF3243F82020174B1B68F3B1174A8D
:101E8000934224D110BD03F097FC18230360124B3A
:101E90001B682BB1114A93420BD14FF0FF30F1E791
:101EA0000D4B1B68002BF5D10B4B1A1D1A602346F6
:101EB000F0E78B220B490C48FFF702FD064B1B682D
:101EC000002BDCD1044B1A1D1A602346D7E78B2266
:101ED00004490548FFF7F4FC5C0F0020600F002068
:101EE000E800002098E20000BCE2000010B51A4BA8
:101EF0001C6824B1194B9C4207D100230FE01C68D9
:101F0000002CF7D11C1D1C60F4E78B2214491548E6
:101F1000FFF7D6FC144A002142F8231001333F2B6F
:101F200005D8114A52F823208242F7D1F2E70A4B32
:101F30001B681BB1094A934209D110BD064B1B68AF
:101F4000002BF7D1044B1A1D1A602346F2E78B22AF
:101F500003490448FFF7B4FC5C0F0020600F002029
:101F600098E20000BCE20000E800002070B50446E2
:101F7000084B0360084B1B680BB1204670BD15462B
:101F8000064E3046FFF7A8F82946304601F0A8FB78
:101F9000F3E700BF44E90000E010002074100020C7
:101FA000002070470020704710B50446FFF742FF3D
:101FB000002807DB044B43F820400023034A135456
:101FC000034A135410BD00BFE8000020DC0E0020BF
:101FD0001C0F00200EB470B585B00546FFF72AFF30
:101FE000041E0FDB00230393294601A8FFF7D4F951
:101FF00001A8FFF72AFA58B921466FF01200FFF73F
:1020000009FF0446204605B0BDE8704003B07047A4
:1020100001A8FFF704FA68B101A8FFF70BFA0390D3
:10202000134B039A43F824200023124A1355124AF3
:102030001355E7E701A8FFF7E7F9054680B1036804
:102040009E6801A8FFF7D2F90246099B03A928461A
:10205000B0470028E4D02146FFF7DCFE0446D1E774
:1020600021466FF01200FFF7D5FE0446CAE700BF15
:10207000E8000020DC0E00201C0F002008B5012025
:1020800000F01DF8074B1B681844074A824203D32F
:10209000044A106018467047044B0C221A604FF037
:1020A000FF307047E801002000F00020E41200201B
:1020B00000B9FEE708B5FFF70FFC0120704708B52F
:1020C000FFF7F6FF0120704708B5002105F05EFB21
:1020D00008BD7047704708B5FFF7FBFF08BD08B59E
:1020E000FFF7F8FF08BD000008B5037803F003030D
:1020F000012B10D0037803F00302012A0DD022B97E
:1021000043F002030370012008BD40F29D620449C0
:102110000448FFF7D5FB0020F6E70020F4E700BFF6
:10212000B4E80000E0E8000008B5037803F003021B
:10213000022A07D123F003035BB243F00103DBB2B1
:10214000037008BD40F2A66201490248FFF7B8FBE0
:10215000B4E8000000E900000F4B1B78BFF35B8F71
:1021600013F0010F01D00D48704710B50A48FFF772
:10217000BBFF08B9094810BD084C4FF41652084976
:102180002046FFF7F3FE0448FFF7CEFF054A064955
:102190002046FFF792FFEDE7D80E0020640F0020E5
:1021A00098E90000E00000206D1D000010B5044615
:1021B000FFF7F8FE00B110BD2046FFF7F1FE002842
:1021C000F9D1FFF7C9FFF6E73F2811DC10B5044647
:1021D000084B53F82000B0F1FF3F00D010BD022C97
:1021E000FCDC2046FFF7E2FF024B43F82400F5E752
:1021F00000207047E800002010B50446FFF7E4FF18
:102200000C4B002243F8242030B1026852699047F9
:10221000041E08DB002010BD03F0CEFA0923036082
:102220004FF0FF30F7E703F0C7FA644204604FF065
:10223000FF30F0E7E800002008B5FFF7DDFF08BD3C
:1022400070B50C461546FFF7BFFF40B10268D6686F
:102250002A462146B047041E08DB204670BD03F025
:10226000ABFA092303604FF0FF34F6E703F0A4FA5A
:10227000644204604FF0FF34EFE700002DE9F047BF
:10228000B2F1000A0ADB81460D46FFF76DFDA0B3EF
:102290002C4B13F809700024A04614E003F08CFACC
:1022A000162303604FF0FF382BE0012226494846F1
:1022B000FFF7C6FF00283EDB23DD224B0D2203F88B
:1022C000092037780134A24519DD2E192B5D0A2B20
:1022D000F7D10D2FF5D0A045E7DAA4EB080205EB06
:1022E00008014846FFF7ACFF002821DB8044444545
:1022F00007DC144B03F80970D7E74FF00008C2451C
:1023000002DC4046BDE8F087AAEB080205EB0801B5
:102310004846FFF795FF002810DB8044B8F1000F16
:10232000EFDD454415F8012C064B03F80920E8E7DA
:102330004FF0FF38E5E74FF0FF38E2E74FF0FF38A6
:10234000DFE700BF1C0F002038E9000070B50C4625
:102350001546FFF739FF40B1026896682A462146C4
:10236000B047041E08DB204670BD03F025FA0923A0
:1023700003604FF0FF34F6E703F01EFA6442046096
:102380004FF0FF34EFE7000070B582B0151E22DB7E
:1023900004460E46FFF7E8FC00283BD001220DF171
:1023A00007012046FFF7D2FF002830DB88B19DF8F7
:1023B00007300D2B16D00A2B1DD00D2B20D00A2B49
:1023C00003D1174A125D0D2A1ED0154A13553370DA
:1023D000012002B070BD03F0EFF9162303604FF047
:1023E000FF30F6E70E4A125D0A2AE4D00C4A135574
:1023F0000A233370ECE70A4A125D0D2ADDD0F5E7B7
:10240000074A125D0A2ADAD1054A1355C6E74FF08A
:10241000FF30DEE72A4631462046FFF797FFD8E730
:10242000DC0E002010B5FFF7CFFE30B10268D26994
:102430009047041E07DB204610BD03F0BDF90923B9
:1024400003600024F7E703F0B7F964420460002456
:10245000F1E730B583B0044640238DF80030CDF865
:102460000100684603F054FC054618B12046FFF70A
:10247000D9FF10B9284603B030BD2846FFF724FE27
:10248000F8E770B506460D46FFF78EFD041E0CDB1F
:1024900029462046FFF7DDFF054608B1284670BDF6
:1024A00031462046FFF7A0FCF8E70025F6E708B51F
:1024B000FFF7B8FF08BD70B50C461546FFF784FE60
:1024C00040B1026816692A462146B047041E08DB5F
:1024D000204670BD03F070F9092303604FF0FF340C
:1024E000F6E703F069F9644204604FF0FF34EFE768
:1024F00008B5FFF7E0FF08BD38B50C46FFF764FEEE
:1025000070B105460368DB69984780B14FF400530A
:1025100063602B689B6A284698472061002038BD7D
:1025200003F04AF9092303604FF0FF30F7E74FF457
:102530000043EDE708B5FFF7DFFF08BD70B50446BF
:102540000E46154905F050FAA0B11449204605F091
:102550004BFA98B11249204605F046FA98B1237813
:10256000402B15D026F400412046FFF733FD0546E9
:10257000284670BD0546FFF727FEF9E70120FFF763
:1025800023FE0125F4E70220FFF71EFE0225EFE7F8
:10259000D4F80150ECE700BFB8E90000C0E9000042
:1025A000B0E9000008B504F059F908BD10B50446BB
:1025B0000421FFF7F7FF204610BD7047704708B5AC
:1025C00000F0A2FCFFF7FAFF08BD08B5FFF7F5FF22
:1025D000FDF734FE08BD70B50646FEF76DFD0546F5
:1025E000FEF751FD04462846FEF74DFD031BB3429E
:1025F000F9D370BD0749084A084B9B1A03DD043B19
:10260000C858D050FBDC064880470648804706483B
:1026100000470000C8ED0000E0000020E80B0020AB
:1026200009290000DD2E00001D010000FEE7FEE785
:10263000FEE7FEE7FEE7FEE7FEE7FEE7FEE7FEE772
:102640001030024B43F82010704700BF00000020FC
:102650000F4B1B78062B01D0002070470D4B1B68D9
:1026600013F00F0F0BD10C4B1B6803F0F003302B52
:1026700007D0402B07D0502B07D0002070470020F8
:10268000704701207047012070470120704700BF4C
:10269000E00F00F0E40F00F0E80F00F00B4B1B78A8
:1026A000062B01D000207047094B1B6813F00F0F59
:1026B00007D1084B1B6803F0F003302B03D0002038
:1026C0007047002070470120704700BFE00F00F006
:1026D000E40F00F0E80F00F00F4B1B78062B01D041
:1026E000002070470D4B1B6813F00F0F0BD10C4BE4
:1026F0001B6803F0F003302B07D0402B07D0502B82
:1027000007D000207047002070470120704701204B
:1027100070470120704700BFE00F00F0E40F00F0A9
:10272000E80F00F00B4B1B78062B01D00020704700
:10273000094B1B6813F00F0F07D1084B1B6803F000
:10274000F003302B03D00020704700207047012099
:10275000704700BFE00F00F0E40F00F0E80F00F05A
:102760000F4B1B78062B01D0002070470D4B1B68C8
:1027700013F00F0F0BD10C4B1B6803F0F003302B41
:1027800007D0402B07D0502B07D0002070470020E7
:10279000704701207047012070470120704700BF3B
:1027A000E00F00F0E40F00F0E80F00F00B4B1B7897
:1027B000062B01D000207047094B1B6813F00F0F48
:1027C00007D1084B1B6803F0F003302B03D0002027
:1027D0007047002070470120704700BFE00F00F0F5
:1027E000E40F00F0E80F00F00B4B1B78062B01D034
:1027F00000207047094B1B6813F00F0F07D1084BDF
:102800001B6803F0F003302B03D00020704700203A
:1028100070470120704700BFE00F00F0E40F00F0A8
:10282000E80F00F00B4B1B78062B01D000207047FF
:10283000094B1B6813F00F0F07D1084B1B6803F0FF
:10284000F003502B03D00020704700207047012078
:10285000704700BFE00F00F0E40F00F0E80F00F059
:102860000F4B1B78062B01D0002070470D4B1B68C7
:1028700013F00F0F0BD10C4B1B6803F0F003302B40
:1028800007D0402B07D0502B07D0002070470020E6
:10289000704701207047012070470120704700BF3A
:1028A000E00F00F0E40F00F0E80F00F00F4B1B7892
:1028B000062B01D0002070470D4B1B6813F00F0F43
:1028C0000BD10C4B1B6803F0F003302B07D0402BCF
:1028D00007D0502B07D00020704700207047012000
:1028E0007047012070470120704700BFE00F00F0E3
:1028F000E40F00F0E80F00F0014B024A1A60704745
:10290000EC0100200090D00308B5FFF7A1FE28B12C
:10291000804B1B68C3F304237F4A1360FFF7BEFE9E
:1029200010B17E4B7E4A1A60FFF7D6FE28B17D4B70
:102930001B68C3F342337C4A1360FFF7F3FE20B1F8
:102940007A4AD36823F08073D360FFF709FF40B160
:102950004FF080430022C3F80C21C3F81021C3F8C4
:102960003825FFF723FF10B1714B03221A60FFF7E0
:102970003BFF58B16F4B05221A60783301221A6071
:10298000703B00221A60043B3F221A60FFF74AFFA7
:10299000002846D04FF08052D2F80414664BC3F89A
:1029A0002015D2F80814C3F82415D2F80C14C3F873
:1029B0002815D2F81014C3F82C15D2F81414C3F843
:1029C0003015D2F81814C3F83415D2F81C14C3F813
:1029D0004015D2F82014C3F84415D2F82414C3F8D3
:1029E0004815D2F82814C3F84C15D2F82C14C3F8A3
:1029F0005015D2F83014C3F85415D2F83414C3F873
:102A00006015D2F83814C3F86415D2F83C14C3F832
:102A10006815D2F84014C3F86C15D2F84424C3F8F2
:102A20007025FFF71DFF28B1444B1B6803F04F03CF
:102A3000434A1360FFF73AFF60B14FF08043D3F889
:102A4000003413F0010F05D04FF080436FF0010206
:102A5000C3F800243B4AD2F8883043F47003C2F82C
:102A60008830BFF34F8FBFF36F8F4FF01023D3F831
:102A70000032002B1BDB4FF01023D3F80432002B65
:102A800015DBFFF739FF4FF080430122C3F818250B
:102A90000021C3F804119A604FF08043D3F8043149
:102AA000002BF9D0284B0122C3F8402508BD264B46
:102AB0000122C3F80425244BD3F80034002BFAD0AC
:102AC0004FF010231522C3F800221F4BD3F8003417
:102AD000002BFAD04FF010231522C3F804221A4B12
:102AE000D3F80034002BFAD0174B0022C3F804258A
:102AF000154BD3F80034002BFAD0BFF34F8F114998
:102B0000CA6802F4E062114B1343CB60BFF34F8FEE
:102B100000BFFDE7240300104035014074C00740AA
:102B20000DF0ADBA440200103C050040F0ED00E0AD
:102B3000A00500401056004000C0004058020010A0
:102B4000E40E004000ED00E000E001400400FA0562
:102B500008B5044B1B7803B908BD024801F000F822
:102B6000FAE700BFF001002008B5034B01221A70FC
:102B7000002001F003F808BDF001002008B500F5C1
:102B8000E0724FF0A04353F82230C3F30143032B0C
:102B90000BD002210F4B1B68C34013F0010F03D071
:102BA000012904D002290ED008BD0121F2E70A4B09
:102BB0001B5C13F0400FF5D0084B1B68084A52F815
:102BC00020009847F0E7044B1B5C13F0200FEBD07C
:102BD000F2E700BF0C100020E80F002010100020CA
:102BE000680F002008B50E4B1B68C34013F0010F9F
:102BF00009D00C4B1B5C13F0020F05D1094B1B5C79
:102C000013F0100F08D108BD064B1B5C13F0100F1A
:102C1000F4D101F00BFFF6E702F066F8F3E700BF2E
:102C200008100020E80F002010B582B004463F4B8A
:102C30001B5C13F0010F04D13C4B1B5C13F0100F15
:102C40006AD03A4B1B5D13F0020F04D0374B1B5D6B
:102C500013F0100F4DD09DF8063003F0FD036FF315
:102C600000038DF8063003238DF804302F4B1B5DD5
:102C7000C3F38103012B1AD0032B1CD18DF805302F
:102C80002A4B1B5D13F0100F19D19DF805209200FF
:102C900004F5E0734FF0A04141F82320012303FA2B
:102CA00004F4234A13682343136002B010BD0123C8
:102CB0008DF80530E4E700238DF80530E0E71D4A84
:102CC00001A9204601F018FF1B4B1B68E34013F0DD
:102CD000010FE3D0154B1B5D13F0400F04D1134BD4
:102CE0001B5D13F0200FD9D00121204601F06EFFAB
:102CF000D4E70023ADF804308DF806304FF0A04340
:102D0000D3F80435E34003F001038DF8053001A941
:102D1000204601F029FEC1E7012303FA00F4044A2A
:102D2000136823EA04031360BFE700BFE80F002025
:102D3000081000207D2B00000C1000200170B1F164
:102D4000FF3F17D010B50446C9B21F290DD80A4954
:102D50000620FFF775FC01F0BFFD94F9002007493C
:102D60008B5C43F001038B5410BD5322044905488A
:102D7000FEF7A6FD704700BF554D0000E80F00208C
:102D8000D0E9000018EA000038B5044690F90000C8
:102D9000B0F1FF3F0ED00D46C0B2FFF723FF94F90C
:102DA0000000074B1A5C65F383021A54C0B2FFF7A8
:102DB0003BFF38BDB22203490348FEF781FD00BF47
:102DC000E80F0020D0E90000B8E1000038B5044663
:102DD00090F90000B0F1FF3F0ED00D46C0B2FFF7F2
:102DE00001FF94F90000074B1A5C65F341021A5485
:102DF000C0B2FFF719FF38BDBD2203490348FEF7F3
:102E00005FFD00BFE80F0020D0E90000B8E100003E
:102E100030B40546002300E001332E4A12F9334056
:102E2000B4F1FF3F18D002EBC30292F90120B2F1D6
:102E3000FF3F0ED0AC42EFD18A42EDD1254A02EBE2
:102E4000C3035868244B03F8105003EB4003597038
:102E500004E04FF0FF3001E04FF0FF30B0F1FF3FF2
:102E600010D0B0F1FF3F27D0B0F1FF3F2FD030BCE2
:102E70007047194A02EB430292F901208A4209D1B4
:102E80001846EEE70023002BEBD1134A12F913206A
:102E9000AA42EED00133F6E70F4A02EB430292F961
:102EA0000120B2F1FF3F10D10B4A02F8135002EBA0
:102EB000430251701846D7E70023002BD4D1064AAD
:102EC00012F91320B2F1FF3FE6D00133F5E70020FD
:102ED000CDE700BFC8E90000F40100200023362B35
:102EE00007D8064A52F82310054A42F82310013346
:102EF000F5E7034A034B9A60704700BF00000000EB
:102F00000000002000ED00E000B583B0052101A81D
:102F1000FDF7FAFD9DF90420B2F1FF3F08D001232F
:102F200093404FF0A042C2F80C3503B05DF804FBAB
:102F3000202202490248FEF7C3FC00BF7CE10000EA
:102F4000B8E1000008B50A4A00EB800302EBC303B6
:102F50000021597400EB800052F830301A6A596A27
:102F60002AB111F0020F02D00021D869904708BDA4
:102F70004810002010B50A49830000EB800201EBE5
:102F8000C20200245473184451F830301A6A596A46
:102F90002AB111F0010F02D00121D869904710BD6C
:102FA0004810002010B50B49820000EB800301EBB4
:102FB000C3030024DC735C73104451F830301A6B87
:102FC000596B2AB111F0040F02D004219963904784
:102FD00010BD00BF4810002008B50D4B1B7843B151
:102FE0000B4B00221A700B4BDB7B33B11046FFF703
:102FF000D9FF094B1B7823B908BD0020FFF7BAFFA2
:10300000F7E70020044B1870FFF79CFFF4E700BFC0
:1030100071100020481000207010002038B9044BB7
:1030200001221A70034B4FF48012C3F8002170473D
:103030007110002000E100E038B9044B01221A7041
:10304000034B4FF48012C3F800217047701000202A
:1030500000E100E010B50B49820000EB800301EBBA
:10306000C30300241C749C73104451F83030DA6B95
:10307000196C32B111F4807F03D04FF48071596420
:10308000904710BD4810002030B482B0124B134A54
:10309000C3F808230021C3F84C11D3F84C21019246
:1030A000019AC3F81011D3F810210092009AD3F8B6
:1030B000002222F02002C3F80022094A00EB80041B
:1030C00002EBC4040125257484F824101022C3F8EF
:1030D000042302B030BC70470020004010000800FC
:1030E000481000202DE9F04383B000EB8002274B0D
:1030F00003EBC20393F8129089F001029A74244BF7
:10310000D3F83C85B8F1000F29D103B0BDE8F083B6
:103110000137474526D206EB86031C4A02EBC30360
:1031200001A9586900F0DFFDE0B1184CB50006EBCD
:10313000860304EBC303DA194A441279027001A929
:10314000586900F0DCFDAB19DB001833234453E869
:10315000001F013943E80012002AF8D1D8E70646DB
:103160000027D6E706EB8603084A02EBC3035B7C25
:10317000002BCAD106EB8602044B03EBC2030122EB
:103180005A743046FFF758FFBFE700BF48100020D1
:103190000020004010B5154B00EB800103EBC1018E
:1031A0008A7C82F0010200EB800402EBC40213442B
:1031B00004330F4AC2F834350123C2F83835096A9E
:1031C000B1F1FF3F0DD0094A02EBC4039B69032B09
:1031D00008D800EB8000054B03EBC000012380F80A
:1031E000243010BD084601F075FCFAE748100020B5
:1031F0000020004010B584B004461F4BD3F81031B6
:1032000083B11D4B0022C3F81021D3F81031019374
:10321000019B00EB8003194A02EBC3031B7C7BB1CB
:10322000FFF718FF144BD3F84C311BB1124BD3F8F6
:10323000103143B1104BD3F8203183B904B010BD25
:10324000FFF750FFEEE70C4B0022C3F84C21D3F8F8
:103250004C310293029B2046FFF79CFFEAE7064BA6
:103260000022C3F82021D3F820310393039B20468A
:10327000FFF7D4FEE2E700BF002000404810002026
:1032800008B50020FFF7B6FF08BD000038B50028DC
:103290003AD004464368B3F1FF3F0CD0012202FA52
:1032A00003F34FF0A042C2F80835436803F5E0731A
:1032B000032142F82310A368B3F1FF3F06D003F5C2
:1032C000E0734FF0A042002142F823106168A26829
:1032D0004D4BC3F80C15C3F81425237D012B19D0D1
:1032E0002169236803EB8300484A02EBC002126A9B
:1032F000914223D1637D227D1343434AC2F86C354A
:10330000A369C2F8243538BD40F24E2240494148F5
:10331000FEF7D6FAE368B3F1FF3F06D003F5E0739A
:103320004FF0A042002142F82310E268364B4FF0E4
:10333000FF31C3F80815C3F81025D1E7334A02EB73
:10334000C003187F01F072FEB0B9236803EB83035A
:103350002E4A02EBC3031B6AB3F1FF3F12D120696F
:10336000B0F1FF3F12D12368216903EB8303274AA1
:1033700002EBC3031962BDE740F27B2224492648D1
:10338000FEF79EFA206901F051FBE8E7234901F0BE
:10339000EBFA08281ED028BB236803EB83031B4AE3
:1033A00002EBC3031D7F206901F086FB02461C4926
:1033B000284601F001FED8B9236803EB8303134AC2
:1033C00002EBC303187F01F01BFEB8B9206901F0BE
:1033D00061FBC8E7206901F029FB1049206901F071
:1033E000C3FAD8E740F2922209490B48FEF768FA7F
:1033F0004FF4267206490848FEF762FA40F29B2213
:1034000003490548FEF75CFA002000404810002000
:1034100038EA000080EA000084EA000098EA000030
:10342000102100402DE9F04383B0184CDFF8649080
:10343000C4F80893164F00EB800507EBC5056869D3
:1034400000F049FC2023AB610023C4F84C31D4F8D0
:103450004C210192019AC4F81031D4F81021009245
:10346000009AD4F8002242F02002C4F80022AB7483
:103470002A1DC4F834250122C4F838252B7485F898
:103480002430C4F8049303B0BDE8F083002000406A
:10349000481000201000080038B5D0B10446056877
:1034A00005EB8502234B53F83230834217D0204678
:1034B000FFF7ECFE05EB85031E4A42F8334000237C
:1034C00084F82C3094F82D302BB32846FFF7DCFD20
:1034D00038BD4FF43F7218491848FEF7F1F990F8DB
:1034E0002C30002BE3D190F82D3033B905EB850259
:1034F000104901EBC202127CA2B9002BE8D005EB07
:1035000085030C4A02EBC3031B7C002BE0D1284649
:10351000FFF7BAFDDCE72846FFF784FF084B0122DE
:103520001A60D5E72846FFF77DFF054B01221A6098
:10353000CEE700BF4810002038EA000080EA000013
:1035400000200040F0B583B0002869D00E46154633
:103550000446554B1B78002B36D0534B00221A7073
:1035600001F0F8F9002861D050491420FFF768F8FD
:103570004F4BE02283F814234FF48012C3F88021CC
:103580001A604C4F012321224B49384600F08DFB35
:103590004A484761002340F81C3B01F0E3FC002847
:1035A00047D14FF0FF33454A1362454AC2F808330A
:1035B00044490220FFF744F83D4B002283F80223E0
:1035C0000422C3F880211A6029463046FFF720FC08
:1035D000206000EB8003394A02EBC3029368013399
:1035E0009360012B2BD0B6F1FF3F50D06660B5F150
:1035F000FF3F50D0A56000236375334AA2614FF0AE
:10360000FF32E260226123752362304B9C4246D038
:10361000012384F82C302046FFF73EFF03B0F0BDB5
:1036200040F243322A492B48FEF74AF901F054F997
:103630009AE74FF4597226492748FEF741F9204B83
:103640000822C3F800254FF0FF32C3F80C25C3F859
:1036500014254FF08052C3F8242500EB8000C000F1
:103660000830164A10440430C3F844050122C3F858
:1036700048250021C3F82011D3F8201101910199A8
:103680009A600F4BD3F81C31002BFAD0ABE74FF008
:10369000FF336360ABE74FF0FF33A360ABE70F4B43
:1036A00001221A60B4E700BFF6010020D92F000004
:1036B00000E100E038100020141000204810002025
:1036C00000200040813200000050270074100020CC
:1036D00038EA000080EA000084EA0000E0100020E0
:1036E00008B580B30346B1F5166F32DBB1F5965FCE
:1036F00039DBB1F5165F39DBB1F5615F38DBB1F568
:10370000964F37DBB1F5E14F36DBB1F5164F35DBC0
:10371000B1F5614F34DBB1F5963F34DBB1F5E13FF4
:1037200034DBB1F5613F33DB214A914233DDB1F542
:10373000E12F33DBB1F5612F33DB1E4A914233DCDD
:103740004FF0706207E040F20E421B491B48FEF743
:10375000B7F84FF49E229969914203D09A610122F1
:1037600083F82C2008BD4FF41D22F4E7144AF2E739
:10377000144AF0E7144AEEE7144AECE7144AEAE781
:103780004FF41D02E7E74FF46B02E4E7114AE2E76A
:103790004FF0EB72DFE74FF06C72DCE74FF08062C6
:1037A000D9E74FF0E862D6E74FF08052D3E700BF89
:1037B0008FD003003F420F0038EA000080EA00008B
:1037C00000B013000050270000F03A0000A04E00A7
:1037D00000C0750000903A0108B510B10162C261E5
:1037E00008BD4FF49C6202490248FEF769F800BF29
:1037F00038EA000080EA000008B548B10346012914
:1038000000D0022152B95A6A22EA01025A6208BD66
:1038100040F2F54205490648FEF752F85A6A0A4353
:103820005A621846FFF738FEF1E700BF38EA000099
:1038300080EA000070B582B0002833D0002280F802
:103840002D200568FFF728FE05EB85021E4B03EBD4
:10385000C2035C69628992B2E3889BB29A42F9D052
:1038600001A9204600F056FA064601A9204600F0BC
:103870005DFA05EB8503DB0003F11802124B1344DC
:1038800053E8001F013143E80012002AF8D105EB8C
:1038900085030D4A02EBC30393F8243043B9307813
:1038A00002B070BD40F2125208490948FEF708F80C
:1038B000134605EB850203EBC202002182F82410B7
:1038C000106A01F007F9EAE74810002038EA000022
:1038D00080EA000030B583B070B30D460468FFF78E
:1038E000DBFD184BD3F81C31002BFAD0154B00210F
:1038F000C3F81C11D3F81C210192019A124A04EB5F
:10390000840002EBC000057304EB8404E400083477
:1039100014440434C3F844450122C3F84825C3F8CD
:103920002011D3F82011009100994FF48071C3F851
:1039300004139A6003B030BD40F243520349044877
:10394000FDF7BEFF002000404810002038EA0000CC
:1039500080EA000010B588B1002280F82D200468AC
:10396000FFF79AFD04EB8404074B03EBC40463697F
:103970005889DB88C01A18BF012010BD40F26B5275
:1039800002490348FDF79CFF4810002038EA000078
:1039900080EA000008B570B1036803EB83030B4AAB
:1039A00002EBC3035B7BDBB25BB9094BD3F81C3181
:1039B0004BB1012006E04FF4B16206490648FDF71D
:1039C0007FFF002008BD0020FCE700BF481000205A
:1039D0000020004038EA000080EA000000487047FC
:1039E0009CEA000030B583B0234B1B7863B1234BB6
:1039F00000221A601B680093009B214B4FF4803219
:103A0000C3F8082303B030BD01251E4B1D601C4CBC
:103A10004FF48033C4F80833D4F8043523F003039B
:103A2000C4F80435D4F8103523F00F0343F0040331
:103A3000C4F81035D4F8083543F00303C4F808354A
:103A40000022C4F840250D4B1A601B680193019BAE
:103A50000D490920FEF7F4FD0C4B402283F80923A1
:103A60004FF40072C3F880211A602560084B1D6076
:103A7000014B1D70C6E700BFE410002040910040DC
:103A80000090004004900040C110000000E100E000
:103A900044900040034B01221A60443BD3F8440594
:103AA000704700BF4490004010B582B00446FDF757
:103AB000C7FF0B4BC3F84045D3F8043313F4803FE2
:103AC0000AD1084B00221A601B680193019B044B2A
:103AD0004FF48032C3F80423FDF7CAFF02B010BDD3
:103AE0000090004040910040024B4FF40072C3F838
:103AF0000021704700E100E0024B4FF48032C3F830
:103B0000082370470090004082B0044B00221A60E6
:103B10001B680193019B02B0704700BF40910040B9
:103B200001230B4A13600C3213600A4B4FF48032AE
:103B3000C3F80823084B4FF40072C3F88020BFF38A
:103B40004F8FBFF36F8F054B00221A70704700BF75
:103B5000049000400090004000E100E0E4100020EC
:103B600072B6054A1378191E18BF0121017001337E
:103B700013700020704700BFE5100020054A13783D
:103B8000013B137018B9134600221A7062B6002068
:103B9000704700BFE510002010B4034653E8002F23
:103BA000A2EB010043E8000494F0000FF6D15DF8A9
:103BB000044B704710B483B050E8013F9CB2C289F7
:103BC00014448289944228BFA41A0289944202BFF5
:103BD000BFF32F8F002007E0C4EA030440E801424E
:103BE000002AE9D14FF001008DF807000093009BF7
:103BF0000B609DF8070003B05DF8044B704750E878
:103C0000012FC2EA024240E80123002BF7D170479E
:103C100010B483B050E8023F1FFAA3F4C288944264
:103C200002BFBFF32F8F00200DE0C28914448289A8
:103C3000944228BFA41AC3EA044440E80242002A7E
:103C4000E8D14FF001008DF807000093009B0B6056
:103C50009DF8070003B05DF8044B704750E8022F51
:103C6000C2EA224240E80223002BF7D1704782B01B
:103C700050E8022FC188B2EB324F4FF0000317BF5C
:103C800092B241EA014142EA014104E04268B2EBEA
:103C9000324F08BF012340E80212002AE8D18DF814
:103CA00007309DF8070002B0704781B110B40C4690
:103CB000B2FBF3F103FB112189B251B904604160F9
:103CC00081608281C38108465DF8044B70470E20F5
:103CD00070470920F8E708B5FFF7C9FF08B10020D1
:103CE00008BD1120FCE738B505460C46FFF762FF1A
:103CF00018B128682388184438BD0020FCE708B5AF
:103D00000A884B889A4201D0002008BDFFF777FF50
:103D10000120FAE738B505460C46FFF779FF18B1E0
:103D200028686388184438BD0020FCE708B50A8875
:103D30004B889A4201D0002008BDFFF78FFF012079
:103D4000FAE7000038B50546002400E00134032CF2
:103D500007D8044B53F82430002BF7D02846984757
:103D6000F4E738BDF41000200378013B052B34D86C
:103D7000DFE803F003061120293100230B707047A0
:103D800001230B7003898B818388CB81C3688B608F
:103D900000230B74704702230B7003898B81838887
:103DA000CB81C3688B60837D062B14BF0023012366
:103DB0000B74704703230B70C3888B810389CB81FD
:103DC000C3688B60704704230B70C3888B8100230A
:103DD000CB818B60704705230B707047884207D2F8
:103DE0000368B3F1FF3F01D0012070470020704706
:103DF000002070474388033300EB8300704738B5D9
:103E000004460D46FFF7F6FF854208D3A2884FF619
:103E1000FF739A4205D023882BB1002038BD0220C1
:103E2000FCE70120FAE70120F8E7000060B10A4A48
:103E3000D26882420AD8084A1269824208D310F036
:103E4000030F07D101207047002070470020704702
:103E50000020704700207047D40B00200023012B66
:103E600018D810B403E001339BB2012B0ED803EB3A
:103E70008302094C04EB820252688A42F3D202F5B3
:103E800080528A42EFD90380002000E00A205DF8CA
:103E9000044B70470A207047241100208B7D022BB1
:103EA00004D9CB880289134403330381CA88438928
:103EB0009B1A033B43817047F8B50E4600EB800028
:103EC000134B03EB8000446804F580550868A0B1EB
:103ED000FFF790FF044629462046FFF77FFF07467D
:103EE00098B129462046FFF78AFF012807D002280B
:103EF0000AD00028EFD1346007E00834EBE7204611
:103F0000FFF778FF0446E6E700273846F8BD00BF14
:103F10002411002070B582B006460D464068FFF7B8
:103F200085FF20B13289174B1B899A4218D0002394
:103F30002B802B88012B23D80023019301A92888EB
:103F4000FFF7BAFF0146B8B1019B9C683268944202
:103F5000F4D173600B4B1B893381084602B070BDEE
:103F6000326871688B689A42E1D12846FFF776FF84
:103F7000B0FA80F14909F0E72B8801332B80D8E7AC
:103F80000021EAE70C110020F8B51C461D4B1B78F8
:103F9000002B32D005460F461646002A2FD034B9E2
:103FA000052027E000232360A3880133A380A38892
:103FB000012B20D803EB8303134A12F82330002B84
:103FC000F2D12146A088FFF777FF0028EAD02368C6
:103FD0001DB199882A889142F3D11FB119883A8876
:103FE0009142EED19B68336023687360074B1B8955
:103FF00033810020F8BD0A20FCE70220FAE7052003
:10400000F8E700BF04110020241100200C1100204B
:104010000B4A1389013313810023538013730CE07F
:1040200003EB83018A0007498A5CB2FA82F25209E3
:10403000034919448A7201339BB2012BF0D97047AE
:104040000C1100202411002030B40546002301E0AB
:1040500001339BB2012B19D80E4A1A44927A002AD6
:10406000F6D00C4A1A440021917203EB83020A49EC
:1040700001EB8202D268002AEAD103EB830401EB50
:104080008404207C0028E3D02B8000E0002030BC9A
:10409000704700BF0C11002024110020044B5B6806
:1040A0005B880333034A918811FA83F39380704746
:1040B0000C1100206011002030B40B490D680B4B2F
:1040C0005B880B4803EB8304A200024454680C6035
:1040D00055608C8803EB83039A001044048102230B
:1040E0008B8030BC704700BF601100200C11002095
:1040F0002411002008B5124B1B78072B0AD8DFE8E3
:1041000003F00409090A1016161AFFF781FF0C4B79
:1041100001221A7008BDFFF7C1FF094B02221A7075
:10412000F8E7FFF7C9FF064B06221A70F2E7044BC7
:1041300007221A70EEE7024B01221A70EAE700BF6D
:104140000C11002008B501460148FFF7E3FD08BD4A
:104150004C11002008B5064B05221A7005490223B0
:104160008B80002301220968034800F04CFB08BD46
:104170000C11002060110020D40B002008B50D4B5D
:104180005B8803EB83010C4A02EB8102D26872B9AF
:10419000084A0421117003EB8303074901EB8301F3
:1041A000002301224968054800F02DFB08BDFFF7F8
:1041B000D1FFFBE70C11002024110020D40B0020BC
:1041C00000B583B0002300930823044A044909681A
:1041D000044800F0D8FA03B05DF804FBB0EA000030
:1041E00060110020D40B002008B5044B07221A7080
:1041F00000225A60FFF7E4FF08BD00BF0C11002049
:1042000000B583B00146002300930823034A044805
:1042100000F0B9FA03B05DF804FB00BFA8EA0000A3
:10422000D40B0020F8B530B90B79032B5DD8DFE84B
:1042300003F0071D37422F4B00225A60012005E092
:1042400001230B71FFF7BCFF00284ED1F8BD0B46D0
:1042500000EB800292000021995400EB800003EBF8
:1042600080004068FFF7CCFF01230FE00023012B03
:104270000AD8184603EB83021F4911F82220022AAC
:10428000E5D001339BB2F2E700230F20002BDBD1F6
:10429000184B01221A7000225A6041F61D50D5E7D2
:1042A00000230B71154902228A80012209681448F3
:1042B00000F0A9FAC8E700250D71104C2068FFF73F
:1042C0009FFF104B5B8826680B4903EB830201EBD1
:1042D0008202576827605660A68816810222A28053
:1042E00003EB83039340CD54AEE7024B00225A60A8
:1042F0000E20ABE7041100202411002060110020E3
:10430000D40B00200C11002008B5064B06221A70B1
:104310005B8803EB83039A00034B13445868FFF751
:104320006FFF08BD0C1100202411002000B583B0E0
:1043300002238375002300930423C218044800F06D
:1043400022FA10B903B05DF804FB0E20FAE700BFB3
:10435000D40B002000B583B0036973B103238375C8
:1043600000230093042300F10C020831054800F0FB
:104370000AFA20B903B05DF804FB0123EFE70E2031
:10438000F8E700BFD40B002000B583B0012383758C
:10439000C388002200929B0002690C31044800F09F
:1043A000F2F910B903B05DF804FB0E20FAE700BF84
:1043B000D40B002000B583B00378032B0ED0062366
:1043C000837500230093042300F108021944054873
:1043D00000F0D9F920B903B05DF804FB0523EFE73D
:1043E0000E20F8E7D40B002010B582B00C46002355
:1043F00000930423084A0146084800F0C4F940B974
:1044000004EB8404064901EB84040123237402B005
:1044100010BD0E20FBE700BFA4EA0000D40B002073
:104420002411002070B50C468B8A03EB83022B4DC0
:1044300005EB8205A8B9294A03EB830102EB810150
:10444000496803EB830302EB83031E8901EB8606B5
:10445000A37D062B0AD8DFE803F0142C20260B32AC
:104460003C002846FFF71AFD012614E00F260EE057
:104470001B4800234360A36903601A49FFF74AFD04
:1044800050B331462046FFF751FF06461EB1214684
:104490002846FFF703FD304670BD31462046FFF742
:1044A00059FF0646F2E731462046FFF76DFF064604
:1044B000ECE731462046FFF77DFF0646E6E7062398
:1044C000A375084B1988064B5868FFF78DFF064601
:1044D000DCE741F61D56DAE70A26DCE72411002066
:1044E000E81000206811002010B584B004460023B5
:1044F00001930293C36800930DF10E016846FFF724
:1045000009FD10B90A2004B010BD01988388E3802A
:1045100003882381BDF80E10FFF766FFF3E7000064
:1045200030B583B009484268094B19689C885388A4
:1045300003339BB203250570002000909B0001EB24
:104540008401044800F01FF903B030BD0C110020B5
:1045500060110020D40B002008B5064B191D5888A7
:10456000FFF7AAFC10B1FFF7DBFF08BDFFF706FE5F
:10457000FBE700BF0C11002008B50748FFF764FDFA
:1045800010B1FFF7E9FF08BD044B00221A705A80F2
:104590005A6041F61D50F6E70E1100200C11002064
:1045A00030BB08B5144B1B7B6BB1134B00221A7345
:1045B000114B1B78013B062B1CD8DFE803F0070AE0
:1045C0000D101B131600FFF795FDF1E7FFF7D4FF61
:1045D00008BDFFF7C1FFFBE7FFF7A2FFF8E7FFF712
:1045E000CDFDF5E7FFF790FEF2E7FFF7FDFDEFE702
:1045F000012070470F20EBE70C11002000B585B0BB
:10460000094B01AA00210630FFF7BEFC38B9064B62
:1046100099880298FFF7E8FE05B05DF804FB024BAD
:1046200000221A605A60F7E76C110020B0B908B593
:104630000B79012B0AD0022B12D00BB10F2008BD31
:1046400002230B710846FFF74FFFF8E70846FFF714
:10465000D5FF0A28F3D141F61D50F0E7012070473D
:1046600041F61D50EBE7000008B501460148FFF791
:104670005DFB08BD4C11002008B501210348FFF780
:104680008BFA003818BF012008BD00BF5C11002064
:1046900010B586B0044625E02848FFF753FD284BA7
:1046A000186023E02046FFF7BDFD002844D000231A
:1046B000019303930493059341F61D53984239D017
:1046C00002901F4C01A92068FFF74EFB01A8FFF7DD
:1046D00039FB002323601948FFF7C6FFFFF7CCFF23
:1046E00050B30024164B1B68002BD5D0144B19680F
:1046F0000B78013B052B1BD801A252F823F000BF19
:10470000A546000019470000194700002147000096
:1047100021470000294700002046FFF783FEC4E739
:104720002046FFF783FFC0E72046FFF739FFBCE7CD
:104730000F20BCE70020C3E706B010BD1C1100200D
:104740002011002008B54068FFF7A2FF08BDC3682C
:104750008B4206D8114401390369994203D90020DC
:104760007047002070470120704710F0030F0CBF06
:1047700001200020704743681B68013B0B420CBFBF
:1047800001200020704770B32DE9F04182B00F4640
:1047900016461C46054642B3D0F80080B8F1000F1B
:1047A00025D033B343685A68B4FBF2F302FB1343DA
:1047B0000BBB0846FFF7D9FFF8B13046FFF7D5FF2E
:1047C000E8B1224639462846FFF7C1FFC8B1D8F8FC
:1047D0000C80089B00932346324639462846C04742
:1047E00002B0BDE8F0810E2070470E20F8E70820E7
:1047F000F6E70920F4E70920F2E71020F0E710209F
:10480000EEE71020ECE7E0B12DE9F04188461446D0
:104810001F4605460668B6B1BAB1FFF7ACFFB0B1A6
:104820006B681A6804FB02F241462846FFF78FFFC7
:1048300078B136693B46224641462846B047BDE836
:10484000F0810E2070470820F9E70920F7E71020D3
:10485000F5E71020F3E708B5FDF7F2F808BD08B555
:10486000FDF706F908BD000070B40646154662B1B2
:10487000002365B10824A34218D20E4A52F823201F
:10488000B2F1FF3F05D00133F5E70823F1E70C242F
:10489000F1E758B2074A941984F8300042F823101F
:1048A00035B9083B134483F8506001E04FF0FF3006
:1048B00070BC704774110020064B4FF0FF3243F874
:1048C0002020072804D908381844FF2380F85030E6
:1048D000704700BF7411002010B582B0194B93F8D7
:1048E000584064BB23461F2B07D8164A1A44FF21A1
:1048F00082F830100133DBB2F5E70B2C05D82046E7
:10490000FFF7DAFF0134E4B2F7E70E4A0020506502
:104910000D4BE02183F806134021C3F88011196084
:104920000A4B18601B680193019B094B4FF0004133
:10493000C3F80413012382F8583002B010BD0820D8
:10494000FBE700BF7411002000E100E07C61004043
:1049500000600040034B93F85800003818BF012056
:10496000704700BF74110020F8B52D4B034493F934
:104970003030B3F1FF3F01D00820F8BD04460D46AA
:104980008B7803BB264B0344FE2283F830206B78E0
:10499000012B3DD00123A3404FF0A042C2F80C35BB
:1049A00004F5E0724FF0A043032143F8221024FAEB
:1049B00001F304F007041B4A0120A040D45C044327
:1049C000D4540020D9E701220021FFF74DFFB0F1B8
:1049D000FF3F23D029786A78134E00F5A27056F86D
:1049E000203023F4981323F4F85346F8203056F877
:1049F0002070230203F4F853090401F440310B43FF
:104A0000120502F4801213433B4346F82030BEE700
:104A1000A3404FF0A042C2F80835C1E70420ACE73C
:104A200074110020C81100200060004038B5044611
:104A3000164B034493F93000C0B2072819D9134B21
:104A40001A19FF2182F83010E10804F00700012252
:104A500082405433585C02420AD004F5E0744FF0AF
:104A6000A040022540F82450585C20EA02025A5423
:104A700038BDFFF721FF054B234493F9303003F590
:104A8000A273034A002142F82310D8E774110020D2
:104A900000600040064B034493F93030054903F5AC
:104AA000A27351F8232042F0030241F823207047FB
:104AB0007411002000600040054B034493F930005E
:104AC000C0B28000C0B200F1804000F5C040704725
:104AD00074110020074B034493F930301833DBB2D4
:104AE0009B00DBB203F1804303F5C04301221A604F
:104AF000704700BF74110020314B034493F93030EC
:104B0000002B01DB0820704770B504460D461146A6
:104B1000AA78C2F34002FFF7A7FEB0F1FF3F4DD0E5
:104B2000AB7813F0040F16D113F0010F31D04FF012
:104B3000A04204F5E07152F8213023F0020342F85C
:104B40002130E30804F007011E4E012202FA01F1B0
:104B5000F25C0A43F254AB7813F0020F22D02B78A8
:104B6000194900F5A27051F8202022F4473222F4AE
:104B7000407241F8202051F82020240204F4F85417
:104B80001B0403F440331C43144341F8204000202D
:104B900070BD6A78920004F5E0734FF0A04141F8CF
:104BA0002320CEE708382A78054B184490F8503077
:104BB00043EA821380F850300020E9E70420E7E759
:104BC00074110020C8110020006000402E4B0344E7
:104BD00093F93030072B29DDA3F108022A4B134447
:104BE00093F95030C3F38113032B13D0012B1BD047
:104BF00003234FF0A04200F5E07052F8201021F49A
:104C0000403142F8201052F8201041EA034342F8A4
:104C1000203070474FF0A042D2F81025C24012F069
:104C2000010FE6D10223E4E70223E2E7DAB2072A22
:104C300028D870B483B003F1400292B2920092B2CD
:104C4000124D03F5A27655F8264044F0010445F8CC
:104C5000264002F1804202F5C0420024146012682E
:104C60000192019A59B1084A104490F9301052F853
:104C7000212022B1012202FA03F3C5F8043303B064
:104C800070BC7047704700BF741100200060004086
:104C9000134B034493F93030072B0EDD4FF0A04344
:104CA00000F5E07053F8202022F4403243F8202031
:104CB00053F8202043F820207047DAB2072A0DD895
:104CC000084A03F5A27052F8201021F0010142F8C1
:104CD0002010012101FA03F3C2F80833704700BF26
:104CE000741100200060004070B50446FFF7D0FF4B
:104CF000154B234493F93030DAB2072A05D803F56F
:104D0000A273124A002142F82310E20804F00701BE
:104D100001238B400E49885C03420AD004F5E07001
:104D20004FF0A045022645F82060885C20EA030386
:104D30008B540548044494F93000C0B2FFF7BCFD21
:104D4000FF2384F8303070BD7411002000600040F3
:104D5000C8110020F0B587B00025059501204FF45B
:104D60008073294603E0400004339BB201310729D8
:104D700012D803F1804202F5C0421468012CF2D12E
:104D8000754CD4F804432042EDD00024146012681E
:104D90000392039A0543E6E7704B1B68012B06D08C
:104DA00015F0FF0F2FD1002D30DB07B0F0BD6B4A9F
:104DB0000023136012680492049A45F0004505AA86
:104DC00006E04FF0A041D1F8101542F8041B013362
:104DD000002BF6D0E4E776000134072CE3D8354207
:104DE000F9D05D4B04F5A27253F82200C0F3042001
:104DF00053F82210C1F30141594B53F82430002BD2
:104E0000E9D09847E7E701260024E6E7002300936E
:104E100013B100252C460BE006AA02EB83024FF0EB
:104E2000FF3142F8141C0133F2E7032922D0013488
:104E3000032C5BD84A4B234493F95030D9B203F08A
:104E40003F00B3F1FF3FF2D0C20801F00703012693
:104E500006FA03F306AE06EBD00616F8146C3342DE
:104E6000E5D089093E4E371897F9307056F827700B
:104E7000002FDAD003291AD000F5E0764FF0A04CCD
:104E80005CF82660C6F301460DF1180C624412F876
:104E9000042C134001D0022E03D0002BC7D1032EC7
:104EA000C5D1032909D0002FC1D0B847BFE71DF8ED
:104EB00002601E430DF80260DEE7022E14D04FF0B0
:104EC000020C4FF0A04300F5E07253F8226026F484
:104ED000403643F8226053F8226046EA0C4643F815
:104EE00022600135EDB2DEE78C46EAE7A5B9002D78
:104EF0003FF45BAF8DE74FF0A041D1F8101542F8B9
:104F0000041B0133002BF6D0002343B10123002BF7
:104F10007FF44BAF00231BE0002302AAF2E706AAAE
:104F200002EB830252F8101C52F8042C914201D17A
:104F30000133EAE70023EAE706AA02EB830252F80C
:104F4000101C42F8041C52F8181C42F8141C0133BF
:104F5000002BF1D0CBE700BF006000407C61004037
:104F6000741100202DE9F0418046114E00250427E0
:104F700007E00020FFF773FCBFB126EA0406013505
:104F8000EDB296B10020FFF766FC0124AC4026424A
:104F9000EFD0084B1B6814EA0302EAD1234305490A
:104FA0000B6088F800501746E3E73846BDE8F0810B
:104FB000FFFF0F00D0110020B1B110B40C46AAB110
:104FC00001238340C3F3130191B10B4909680B42DC
:104FD00010D00A4BA23043F8304003EBC0004260CF
:104FE00000205DF8044B70470E2070470E20F8E754
:104FF0000720F6E70820F4E7D011002000F0014078
:10500000012303FA00F0C0F313031BB1054B1B6827
:10501000184204D0044BC3F8040500207047082050
:10502000704700BFD011002000F00140012303FAB7
:1050300000F0C0F313031BB1054B1B68184204D0EA
:10504000044BC3F80805002070470820704700BFD4
:10505000D011002000F0014000B583B0074B0022C2
:105060001A601B680193019B054BD3F80805054B9B
:105070001B68C0B2984703B05DF804FB00D1004044
:1050800000D00040D4110020063150F821007047B4
:105090000844007B7047043100EB81004068704792
:1050A00010B5044603685B699847002383B99A1CCE
:1050B00054F822001A1D04EB8201486054F82200C3
:1050C000991D44F82100002144F822100133EDE736
:1050D00010BD84B070B5054605A880E80E009DF8A7
:1050E0002C40012C05D0032C09D0BDE8704004B041
:1050F0007047089905F58C70FCF760FAF3E7099E94
:1051000000240A9BA342F0D9315D05F58C70FCF7B1
:105110002DFA0134F5E710B504461C30FBF7A4FA6C
:1051200000B910BD04F58C70FCF736FAA0600123BD
:105130002361F6E770B582B004460D46164600F0CE
:105140001FFA002383B91A1D04EB82010020486076
:10515000991D44F82100991C44F8210044F82200CC
:10516000E21810730133EDE72046074B40F81C3B73
:105170004FF416530093002332462946FBF74EF9AD
:10518000204602B070BD00BFC0EA000010B4022289
:105190000260012242600021016120248460052414
:1051A000C4604161826141F22102C2614FF6FF7227
:1051B00002625DF8044B704710B54FF08043002445
:1051C000C3F8004101221A6003E00A20FDF703FA48
:1051D000013442F20F739C4207DC4FF08043D3F856
:1051E0000031002BF1D0012010BD0020FCE710B5EC
:1051F00004462023436200231F2B04DCE218002115
:1052000011710133F8E72046FFF7D6FF0023236032
:10521000204610BDF0B589B006460F46694681E8C4
:105220000C000E9D404C0023C4F8FC3F0A20FDF703
:10523000D2F90123C4F8FC3FE9680139994203DD42
:10524000042902DD042100E00221AB6873626B686F
:10525000354AC2F810350024C2F81445AB6843EA59
:10526000032343EA0143A86943EA0063686943EA08
:105270004063C2F818355523C2F854359DF8003004
:1052800003939DF8013004939DF8023005939DF837
:10529000033006939DF8043007932346994209DDB5
:1052A00008AA02EB830252F8142CD800824014435F
:1052B0000133F3E71C4AC2F81C4508A901EB83033C
:1052C00013F8143CC2F824350223C2F83435EB69D4
:1052D000C2F838352B6AC2F83C3540F20113C2F8E7
:1052E00050362B6803F07F03C2F808350436C2F845
:1052F00004650023C2F82C352B69C2F80C35012F48
:105300000AD03FB9084B0122C3F830252121C3F848
:1053100000125A6009B0F0BD13460022C3F83025D0
:105320000322C3F80022ECE7001000400023426A89
:105330009A4216DD10B4CC5CC21814710133426A73
:105340009A42F8DC0D4B01221A600C4BD3F8103155
:10535000002BFAD0094B0022C3F810215DF8044B52
:105360007047064B01221A60044BD3F81031002B12
:10537000FAD0024B0022C3F8102170470010004001
:1053800008B5FFF7D3FF08BD0E4BD3F80C31012B46
:1053900001D0002070470B4B0022C3F80C21D3F83A
:1053A00000341BB901230360002070471346426A92
:1053B0009A4204DDC2181279CA540133F7E701207A
:1053C000704700BF0010004008B5FFF7DDFF08BDC3
:1053D00084B010B5044603A880E80E00E369012BF1
:1053E00005D09DF82430012B05D0032B0CD0BDE84F
:1053F000104004B07047069904F1740002F05EFC9E
:105400000123C4F8B430F2E707980023089A9A42BF
:1054100005D9C15CE21882F874100133F6E7012364
:10542000C4F8B430E3E770B5044600F14C0600F16F
:10543000940529463046FFF7C7FF10B1A560236BDE
:105440002361D4F8B43003B970BD0023C4F8B4307C
:1054500004F174013046FFF793FFF5E72DE9F043BF
:1054600083B004460E461746984600F089F800209F
:1054700080B9031D04EB830200255560821D44F8AA
:105480002250821C44F8225044F8235023181D73E4
:105490000130EDE72546214B45F8283B2846FFF72C
:1054A00075FE04F14C094846FFF7A1FE9DF82C302B
:1054B00084F820309DF8303084F821309DF8343065
:1054C00084F822309DF8383084F823309DF83C3041
:1054D00084F82430C4F82880E7620A9B2363E661DD
:1054E000AEB901210095636A226A4846FFF792FE31
:1054F0000023C4F8B430032222731F2B09DCE21806
:10550000002182F8741082F894100133F5E700212D
:10551000E8E7204603B0BDE8F08300BFE0EA000002
:1055200000207047002070470020704784B001A819
:1055300080E80E0004B0704770470000024A13680C
:1055400001331360704700BF2C120020012800D0E7
:1055500070474FF6FF739942FAD110B5044C2046BC
:10556000FBF79AF9034A04492046FCF7A6FD10BD53
:10557000D8110020E0000020310900004160704790
:1055800010B50446084B0360084B1B684BB1084B31
:10559000186810B12146FFF7F1FF054B1C6020464B
:1055A00010BD024B1860F2E700EB0000181200205B
:1055B000241200204068704730B58DB00446006862
:1055C00003681B6861689847002828D00546206852
:1055D00003685B6861689847E36805938DF82C0061
:1055E0000A950023069300230793184B089303287A
:1055F00009D8DFE800F00216241D206803689B68C4
:10560000616898470690A4682368DD680CAB13E9CD
:105610000F008DE80F0005AB0ECB2046A8470DB05C
:1056200030BD206803689B68616898470890EAE786
:10563000206803689B68616898470990E3E72068E1
:1056400003689B68616898470790DCE76CE6000098
:105650000161704710B50446016042608360029B9F
:10566000C36000230361084B1B684BB1074B1868EC
:1056700010B12146FFF7ECFF044B1C60204610BD23
:10568000014B1860F2E700BF1C120020201200201E
:105690000069704700B585B000230B4A1360019381
:1056A00002930A4B00930A4B03934FF47A72002340
:1056B00069460848FBF77FF9039B13B19B6868466E
:1056C000984705B05DF804FB2C1200203D55000002
:1056D0006CE00000D811002038B50025164B1B687F
:1056E0003BB3164A1268002AF8D1154A1468002CF8
:1056F000F4D0124A01211160013B0F4A13600D449E
:105700003CB12046FFF758FF2046FFF7C1FF044693
:10571000F6E70C4B1C6844B123681B692046984788
:105720002046FFF747FF0446F5E7044B00221A60C6
:10573000D4E7284638BD00BF2C12002028120020D4
:105740001C1200201812002008B54FF6FF7101202E
:10575000FFF7FCFE08BD000010B502FB01F1FCF7ED
:1057600099F8044668B150F8042C22F00302043A78
:10577000242A18D8132A06D802460023C2E9003387
:105780009360204610BD00231B2AC0E900330FD9C7
:10579000242AC0E902330ABFC0E9043300F1100231
:1057A00000F11802E9E7002101F0A0FC204610BD3D
:1057B00000F10802E1E700BF014B1868704700BF25
:1057C000F801002070B500294BD00C46054610B1F9
:1057D000836B002B48D0636ED80734D5B4F90C30F6
:1057E000002B3ED02146284600F05AF8E36A0646D0
:1057F00033B1E169284698470028B8BF4FF0FF361B
:10580000A3891A063BD4216B41B104F140039942AC
:1058100002D02846FCF74BF800232363616C21B1CA
:105820002846FCF744F80023636400F007FA636E2F
:105830000022DB07A28127D5A06D00F087FF00F0D2
:1058400003FA304670BDA3899905CBD4A06D00F052
:105850007FFFB4F90C30002BC4D1666E16F0010640
:1058600008D00026304670BD00F06CF9636ED80792
:10587000B4D4E8E7A06D00F06DFF304670BD21693B
:105880002846FCF714F8BEE7A06D00F063FFD3E7ED
:10589000024B01461868FFF795BF00BFF8010020D2
:1058A000B1F90C202DE9F0410D461107804647D48F
:1058B0006B6842F40062002BAA815DDDAC6A002CAB
:1058C00057D00023D8F80060C8F8003093B212F423
:1058D000805255D10123E9694046A047431C66D058
:1058E000AB89AC6A5F0705D56A682B6B801A0BB170
:1058F000EB6BC01AE969024600234046A047411CF1
:1059000040D1D8F80030002B3CD01D2B01D0162BF5
:1059100055D1AB892A692A6023F400630022AB8148
:105920006A60296BC8F8006019B305F14003994219
:1059300002D04046FBF7BBFF00202863BDE8F081A2
:105940002F69B7B193B22E682F609A070CBF6B69AD
:105950000023F61BAB600AE06C6AE96933463A46FD
:105960004046A047041EA6EB0406274417DD002E80
:10597000F2DC0020BDE8F081EB6B002B9EDCF8E749
:10598000286DAFE7B5F90C302A692A6023F400636B
:105990000022AB81DB046A60C3D52865C1E7AB890F
:1059A00043F04003AB814FF0FF30BDE8F081D8F801
:1059B0000030002B94D01D2B06D0162B04D0AB89C1
:1059C00043F04003AB81D5E7C8F80060D1E700BFE2
:1059D00038B50C46054608B1836BA3B1B4F90C0089
:1059E000B8B1636EDB0701D4810515D52846214681
:1059F000FFF756FF636EDA07054602D4A3899B05BD
:105A00000ED5284638BD00F09DF8B4F90C000028EA
:105A1000E7D10546284638BDA06D00F099FEE5E7C0
:105A2000A06D00F097FE284638BD00BF014618B1B2
:105A3000044B1868FFF7CCBF034B0449186800F00B
:105A40003BBE00BFF801002014EB0000D15900005C
:105A500038B5184B1D6804460DB1AB6BB3B1636E1E
:105A6000D80702D4A38999051FD56368013B002B91
:105A700063600FDB23685A1C22601D78636EDA07AF
:105A800002D4A3899B050BD5284638BD284600F0D3
:105A900059F8E4E72846214601F04CFE0546EDE7BB
:105AA000A06D00F057FE284638BDA06D00F050FEF6
:105AB000DBE700BFF801002010B500230446C0E971
:105AC0000033C0E904338181C2818360436683610E
:105AD000194608225C3001F009FB07480749084ACB
