:1000000000000120ED15000025160000CD0B0000BA
:1000100029160000DD0B0000E50B000000000000C9
:100020000000000000000000000000002F1600008B
:1000300031160000000000003316000035160000E5
:10004000371600003716000037160000371600007C
:10005000371600003716000037160000371600006C
:10006000371600003716000037160000371600005C
:1000700037160000F53F0000371600003716000065
:10008000371600003716000037160000371600003C
:10009000371600003716000037160000371600002C
:1000A000371600003716000037160000371600001C
:1000B00037160000371600000000000000000000A6
:1000C00037160000371600003716000037160000FC
:1000D00037160000371600003716000010B5054C23
:1000E000237833B9044B13B10448AFF300800123E4
:1000F000237010BDE80B00200000000064A7000082
:1001000008B5034B1BB103490348AFF3008008BD9A
:1001100000000000EC0B002064A70000154B002B32
:1001200008BF134B9D46A3F5803A00218B460F462E
:100130001348144A121A05F081F90F4B002B00D016
:1001400098470E4B002B00D0984700200021040058
:100150000D000D48002802D00C4801F06DF904F0A4
:1001600031FD2000290001F02BFA01F062F900BFF7
:10017000000008000000012000000000B51500008C
:10018000E80B0020C8130020391400000000000014
:10019000063150F8210070470844007B7047043155
:1001A00000EB81004068704710B5044603685B6946
:1001B0009847002383B99A1C54F822001A1D04EBB7
:1001C0008201486054F82200991D44F82100002162
:1001D00044F822100133EDE710BD7047012800D02C
:1001E00070474FF6FF739942FAD12DE9F04186B07E
:1001F000204D4FF47A71284604F006F81E4A1F4934
:10020000284601F014F91E4E0A21304603F034FF4F
:100210001C4F1D49384603F097FFDFF87C80C2234E
:100220000593BB2304934223039355230293C023D6
:10023000019314230093022301220021404604F07D
:10024000B9F9002400944346224639460F4804F089
:10025000ADFA00943B46224631460D4804F0A6FA1A
:1002600000943346224629460A4804F09FFA06B015
:10027000BDE8F081400C0020E00000209D0200005D
:10028000A00C0020C80C0020AC9C0000040C002036
:10029000180C00202C0C0020E80E002038B5044675
:1002A0000546094B45F8203B084B0362284600F001
:1002B00079F86B6B1BB104F148009B68984728469E
:1002C00000F048F9204638BDB89C00000C9D0000A5
:1002D00008B504F08BFA04F0ABFAFCE708B54FF66A
:1002E000FF710120FFF77AFF08BD08B50368984742
:1002F00008BD0B680360704770476FF015007047CA
:1003000008B503681B69984708BD08B503689B6971
:10031000984708BD08B503689B6A984708BD09B1AE
:10032000002070476FF018007047012070476FF091
:10033000150070476FF015007047704738B50446D8
:100340008268C568016A436A521845EB030300F0EE
:10035000EFF8636B2BB104F12800C36813B11B687D
:10036000984738BD40F23B220149024800F090FD19
:10037000DC9C0000FC9C000010B5044600F0C0F8B6
:10038000074B236000220023C4E908230023A36253
:10039000E36223636363012384F83830204610BD91
:1003A0000C9D000030B585B0044600F031FE2046BB
:1003B00000F0C9F8636B13B194F8383023BB04F133
:1003C00028056B46002200925A609A60DA609D42CE
:1003D00011D0EB6813B19B68284698470023A362AD
:1003E0006B60AB60EB60039B1BB15B6869462846A2
:1003F0009847039BEB60039B13B19B686846984743
:1004000000F01EFE05B030BD00F06EFFD7E7000023
:1004100038B504460546074B45F8283BFFF7C2FFB1
:10042000636B13B19B6828469847204600F092F80A
:10043000204638BD0C9D000038B504460546094BE2
:1004400045F8283BFFF7AEFF636B13B19B68284666
:100450009847204600F07EF84021204601F09DF8A4
:10046000204638BD0C9D000070B5044615461E465A
:1004700000F0CEFD204600F066F825626662A069B5
:1004800000F060FB421941EB0603204600F050F8F3
:1004900000F0D6FD70BD2DE9F04104460E469046B1
:1004A0001F4600F0B5FD636BF3B104F12805B542BA
:1004B00011D0EB6813B19B68284698470023A362CC
:1004C0006B60AB60EB60F3681BB15B68314628463C
:1004D0009847F368EB6042463B462046FFF7C4FF6F
:1004E00000F0AEFDBDE8F08194F83830002BDCD090
:1004F00000F0DEFED9E708B503689B68984708BDA1
:1005000010B50446084B036000220023C0E9022313
:1005100000230361436100F03FFBA061034900F049
:1005200081FA204610BD00BF209D0000F7040000A6
:1005300000B583B0009000F10801806900F0B4FAC2
:1005400003B05DF804FB08B500F10801806900F014
:10055000DFFA08BD10B50446024B0360FFF7F3FF56
:10056000204610BD209D000008B503681B690122CC
:100570000021984708BD08B503681B690022114691
:10058000984708BD70B504460D46164601F0D2FBEB
:10059000B5F1FF3F00D170BD94F90030B3F1FF3FDA
:1005A00010D0A6B1012202FA03F34FF0A042C2F824
:1005B00008350121204601F005FC0021204601F00C
:1005C000DFFBE8E720220649064800F061FC012233
:1005D00002FA03F34FF0A042C2F80C35E9E700BF7E
:1005E0002C9D0000689D000008B50022FFF7CAFF9F
:1005F00008BD4368196070472DE9F84F446894F8C6
:100600003A30002B72D1054603685B6898476B68E7
:100610001B6A83426AD0236AC31AE26803EA020CA7
:10062000634600222062A56855498D4257D094F850
:100630003BE0BEF1000F5BD04FEA4C114FEADC60AB
:10064000B1EB0C0160EB0200460246EAD1564F02C4
:10065000304617EB0C0142EB0000870147EA916737
:100660008E01711A67EB000011EB0C0142EB0000E8
:10067000CEF12006AEF1200221FA0EF300FA06F6C2
:10068000334320FA02F2134320FA0EF2AEF1200AAD
:10069000CEF1200C02FA0EF603FA0AFA46EA0A062E
:1006A00023FA0CFC46EA0C0603FA0EF7C91B60EBB2
:1006B0000600A66AE76A11EB060840EB0709C4E9E1
:1006C0000A890026B14508BFA84508D3013342F185
:1006D0000002B8EB050069EB0601A062E162206B45
:1006E000616BC01842EB010120636163BDE8F88FC4
:1006F0004FEA4C1A4FEADC6BBAEB0C0A6BEB020BBD
:100700004FEA4B2141EADA514FEA4A2010EB0C0A3A
:1007100041EB020B4FEA8B1040EA9A604FEA8A11D4
:10072000B1EB0A0A60EB0B0B1AEB0C0A4BEB020B5A
:100730004FF000092A464B465046594609F00EF93B
:1007400003460A46A5FB000105FB0211BAEB000AAD
:100750006BEB010BA16AE06A1AEB01064BEB000799
:10076000C4E90A674F4508BFAE42B8D3013342F12E
:100770000002701B67EB0901A062E162AFE700BFF6
:1007800040420F002DE9F8434468216B606B561A14
:1007900063EB00072569D4E90623BB4208BFB242D8
:1007A00026D3A3681F4A93421FD094F83B202AB354
:1007B000A2F1200CC2F1200307FA02F106FA0CFCA8
:1007C00041EA0C0126FA03F3194306FA02F0164E29
:1007D000144A002380194FF0000646EB010109F08E
:1007E000BDF8854204D3054602E0B54200D3354644
:1007F000206A2844E3681840BDE8F883A3FB068913
:1008000003FB07990848074A002318EB00004FF044
:10081000000149EB010109F0A1F88542E8D3054642
:10082000E6E700BF40420F003F420F00824209D975
:100830008A4203D9884203D90120704701207047BA
:1008400000207047884203D98A4203D900207047AC
:10085000002070470120704770B5456895F83A3020
:100860001BB9044695F8393003B170BDFFF7C4FEDB
:10087000626853684BB3D2E90C01D3E90023994273
:1008800008BF904217D22046FFF77CFF06462B6A2E
:10089000834214D023681B69984723685B68984794
:1008A00001463246286AFFF7C1FF0028DDD02368E1
:1008B0005B699847D9E723685B699847D5E740F2B9
:1008C0001B120649064800F0E3FA286A2B6918440F
:1008D000EA6823681B6910409847C6E7809D0000BE
:1008E000A09D0000436893F83820002A40F09180D2
:1008F0002DE9F04F85B0054693F83A30002B7ED1B4
:1009000003681B6898472B68DB699847066846B1FF
:100910001F246CB10123A340B34209D0013CE4B2CF
:10092000F7E70022009213463A493B4800F0A0FC4A
:10093000D0F804A0AAF104031C2B63D807279F401A
:100940007A01FB0ED21B63F10003590241EAD25136
:100950005002C21941F10003990141EA92619001EC
:10096000B0EB020861EB030918EB070849F1000935
:1009700018EB060849F100093246002318F1FF3050
:1009800049F1FF3108F0EAFF814603916B684FF0AF
:100990000008C3F800806B68C3F804802B685B68AC
:1009A000D5F804B09847CBF820006B6800200021F0
:1009B000C3E90A016B689E606B6883F83B400124C1
:1009C00004FA0AFA6A680AF1FF33D3606B681F61A0
:1009D0006B68C3F81890039ADA616B68C3E90C017D
:1009E0006B6883F839806B6883F83A806B6883F8AA
:1009F00038402846FFF700FE2846FFF72DFF05B0D8
:100A0000BDE8F08F0022009213460449044800F02C
:100A10002FFC7047C49D00000E010480E09D000083
:100A20000501048038B504460D46FFF75BFF00F072
:100A3000EFFA29462046FFF7DCFD00F001FB38BD48
:100A400070B5044600F0E4FA2368DB6898476368F1
:100A500093F83A20DAB9012283F8392063685B6899
:100A6000C3B12046FFF7C8FD65686E68D6E900236C
:100A7000D5E90C01994208BF90420BD3F3686B6033
:100A800063681B68002BE9D0B0689847E6E700F080
:100A9000D7FA08E06368002283F839202046FFF780
:100AA000DBFE00F0CDFA70BD2DE9D84281460C4640
:100AB00016461F4600F0ACFA4846FFF79DFDC4E914
:100AC0000067069BA360D9F804305B68002243B13D
:100AD000D3E900018F4208BF864202D31A46DB6881
:100AE000F5E7E36082B1D4603AB1D9F80430D3E9D4
:100AF0000C23BB4208BFB24202D34846FFF7ACFE0C
:100B000000F09EFABDE8D882D9F804305C60EBE7CB
:100B100038B505460C4600F07BFA6A685368A34274
:100B200005D063B1DA68A24207D01346F9E7E3685B
:100B300053602846FFF790FE01E0E268DA6000F0BB
:100B40007FFA38BD38B50446FFF7CCFE00F060FAF6
:100B50002046FFF751FD6368D3E90C4500F070FAB9
:100B60002046294638BD08B5FFF7ECFF08BD000058
:100B700008B5034B00221A7001F0A0FF08BD00BFAA
:100B80006413002008B501F0FBFE024B01221A702D
:100B900008BD00BF64130020004870471C9E000081
:100BA00008B5034B1B680BB10248984708BD00BF4E
:100BB000E40000201C9E000008B591F90C2091F97A
:100BC000041001F0BBFC08BD002070474FF010037B
:100BD00000F00CB84FF0200300F008B84FF03003DD
:100BE00000F004B84FF0400300F000B8EFF30880C5
:100BF0004FF0040172460A4201D0EFF309809C468F
:100C0000254B196802680A60043142680A600431A1
:100C100082680A600431C2680A600431F0C1474644
:100C20000F6004314F460F60043157460F600431A6
:100C30005F460F60043102690A60083142690A6048
:100C4000043182690A600431C2690A6004310346D2
:100C500020334FF40076324200D0043375464FF013
:100C60001006354200D148330C46103C2360EFF3A8
:100C700009820A600431EFF308820A600431724687
:100C80000A600431EFF314820A606046024B19686F
:100C900000F08EF8FEE7000020A0000070B584B0E0
:100CA000002407E0344B53F824202146334800F059
:100CB00093F901340C2CF5DD2F498B6C02934B6CAE
:100CC00001930B6C0093CB6B8A6B496B2C4800F043
:100CD00083F92C4C21682C4800F07EF9E16AA26A65
:100CE000A36AA06A000C256BE66B02960195009042
:100CF000C3F30723D2B2254800F06EF9A36A13F0BC
:100D0000800F15D11F4B9B6A13F4004F15D11A4B5E
:100D1000DB6C13F0080F1AD01D4800F05DF9164B7C
:100D20001B6D13F0010F0ED01A4800F055F914E0B6
:100D3000616B194800F050F9E4E7124B996B1748C2
:100D400000F04AF9E3E7164800F046F905E01548D7
:100D500000F042F9124800F03FF9074BDB6C13F04A
:100D6000040F04D0104800F037F904B070BD0F48EC
:100D700000F032F9F9E700BF68130020489E000038
:100D8000589E000000ED00E0A89E0000B89E000004
:100D9000289F0000389F0000089F0000189F000057
:100DA000489F00005C9F00006C9F0000789F00003F
:100DB00030B583B005460C461B4B0121D3E84F2FBD
:100DC000C3E8401FD2B23AB1002500230093224667
:100DD0001649284600F04CFA154800F0FDF8302D71
:100DE00018D0402D1BD0202D04D0124800F0F4F86C
:100DF000114D03E0114800F0EFF8114D114800F0DB
:100E0000EBF8FFF74BFF104800F0E6F8064B002226
:100E10001A70DAE70D4800F0DFF80D4DEEE70D48E7
:100E200000F0DAF80C4DE9E7BC13002010A0000038
:100E3000849F0000D89F00003D01FF80B09F00000C
:100E40003E01FF80E49F0000F09F0000C09F000073
:100E50003F01FF80CC9F00004001FF8008B503F0F8
:100E6000DDFE08BD08B57246FFF7F8FF08BD08B5FE
:100E700004F034FB08BD08B503F0A0FD08BD08B5BB
:100E80007246FFF7F8FF08BD08B503F011FD08BD75
:100E900000B583B00B46009200220146014800F0E5
:100EA000E7F900BF4401FF8000B583B000F0B0F85F
:100EB000112101A8FFF798FB0024032C27DC9DF9E2
:100EC0000420B2F1FF3F18D0012393404FF0A0421D
:100ED000C2F80835234800F079FB9DF90420B2F1EF
:100EE000FF3F0FD0012393404FF0A042C2F80C35D2
:100EF0001C4800F06BFB0134DFE720221A491B4835
:100F0000FFF7C6FF202218491848FFF7C1FF002449
:100F1000032CD1DC9DF90420B2F1FF3F18D001234E
:100F200093404FF0A042C2F80835114800F04EFB44
:100F30009DF90420B2F1FF3F0FD0012393404FF001
:100F4000A042C2F80C350A4800F040FB0134DFE74C
:100F5000202205490548FFF79BFF2022024903484C
:100F6000FFF796FFF04902002C9D0000689D0000ED
:100F7000801A060010B5044600220146022000F047
:100F8000EFFA00F045F8204604F03AFD024621460B
:100F9000022000F0E5FA00F053F810BD00B5A3B050
:100FA00002460B46842101A806F06CFB0346832809
:100FB00006D9084A1068CDF8830012798DF8872089
:100FC000002B02DC23B05DF804FB01A8FFF7D2FF81
:100FD000F8E700BF24A000000FB400B583B004A957
:100FE00051F8040B0191FFF7D9FF03B05DF804EB52
:100FF00004B07047EFF3108313F0010F0CBF012012
:1010000000207047EFF30580003818BF01207047BB
:1010100008B500F099FD074B1B68B3F1FF3F03D003
:101020000133044A136008BD3F2203490348FFF718
:101030002FFF00BFE00F00202CA0000058A00000F0
:1010400008B5054B1B681BB1013B034A136003B194
:1010500008BD00F085FDFBE7E00F002030B58FB044
:101060000D46041E00DB254C3022002102A804F0AE
:10107000E5F901940395224B2344012B09D9214B17
:101080009C4229D0033B9C4201D0002302E0012373
:1010900000E0012313B3EB6B02936B6B0893FFF734
:1010A000B7FF194A136801331360012B1BD0174C8B
:1010B00001AD0FCD0FC40FCD0FC40FCD0FC42B68E2
:1010C0002360134B1B6813B1A4F130009847FFF75E
:1010D000B7FF00200FB030BD0123DBE7129B029366
:1010E00001AB0893DBE70B4C01AD0FCD0FC40FCD67
:1010F0000FC40FCD0FC42B682360D8E70101FF8018
:10110000C2FE007F4001FF80E40F00202410002079
:10111000E80F0020EC0F00202DE9F04104460F46B7
:10112000164698460168C1F34173032B16D08DB261
:10113000C1F307432A462F48FFF74EFFA5F23115AA
:10114000132D11D8DFE805F00C2F34393E48434DFC
:101150001010101010101010101010524D42E7E730
:10116000A1682548FFF738FF3846FFF703FF61689D
:101170002248FFF731FF4EB12148FFF7FBFE304612
:10118000FFF7F8FE41461F48FFF726FFA1681E48FB
:10119000FFF722FF21681D48FFF71EFF1C48FFF7DD
:1011A0001BFFBDE8F081A1681A48FFF715FFDBE7D8
:1011B000A1681948FFF710FFD6E7A1681748FFF7A5
:1011C0000BFFD1E7A1681648FFF706FFCCE7A1683F
:1011D0001448FFF701FFC7E7A1681348FFF7FCFEBB
:1011E000C2E7A1681148FFF7F7FEBDE71048FFF717
:1011F000F3FEB9E78CA00000E0A0000090A1000081
:10120000A4A10000ACA10000B0A10000C4A1000096
:1012100010A20000F8A0000008A1000018A1000022
:101220002CA1000040A1000054A1000064A1000016
:101230007CA1000008B50D4B0121D3E84F2FC3E876
:10124000401FD2B20028F6D12AB1FFF7E1FEBFF36A
:101250004F8F20BFFDE7FFF7D5FE10B9FFF7CAFE9D
:1012600008B9FFF721FE012000F0E3F8201000206C
:1012700080B582B01F460C4C0126D4E84F5FC4E80D
:10128000436FEDB20DB1FFF7D5FF88461146CDF89B
:1012900000E0049B3A46FFF7E1FE049B3A464146D4
:1012A0000248FFF739FFEEE7BC13002024100020AE
:1012B0000A4BD3E85F2F0132C3E8512F0029F7D141
:1012C00092B202B1704700B583B000230093034A85
:1012D000128803490348FFF7CBFF00BF58100020D6
:1012E0002CA20000230104800B4BD3E85F2F013AAE
:1012F000C3E8512F0029F7D192B24FF6FF739A42FB
:1013000000D0704700B583B000230093024A1288D2
:1013100002490348FFF7ACFF5810002050A200001C
:10132000240104806FF01C0070476FF015007047B7
:1013300001207047002070477047000070B50E46CE
:1013400015460024AC4205D2315D034801F090FA05
:101350000134F7E7284670BD701100200AB900205B
:10136000704710B50C46034801F032FA2070012096
:1013700010BD00BF7011002038B58DB211F0010F03
:1013800005D1002415F0100F09D1204638BD0848BA
:1013900001F0AEFA08B90024F4E70124F2E70448AA
:1013A00001F0C6FA0028F0D044F01004EDE700BFC9
:1013B0007011002070B50446084B0360084B1B6891
:1013C0000BB1204670BD1546064E3046FFF7F4FBC4
:1013D0002946304601F080F9F3E700BFFCA2000087
:1013E000DC110020701100200020704700207047A1
:1013F00008B5012000F01DF8074B1B681844074A88
:10140000824203D3044A106018467047044B0C22F2
:101410001A604FF0FF307047E801002000F0002014
:10142000C013002000B9FEE708B5FFF73DFD01201D
:10143000704708B5FFF7F6FF012070477047704707
:1014400008B5FFF7FBFF08BD08B5FFF7F8FF08BDBB
:1014500008B5037803F00303012B10D0037803F0E1
:101460000302012A0DD022B943F0020303700120C8
:1014700008BD40F29D6204490448FFF709FD0020C1
:10148000F6E70020F4E700BF70A200009CA2000075
:1014900008B5037803F00302022A07D123F00303FF
:1014A0005BB243F00103DBB2037008BD40F2A662F9
:1014B00001490248FFF7ECFC70A20000BCA200004A
:1014C0000F4B1B78BFF35B8F13F0010F01D00D485A
:1014D000704710B50A48FFF7BBFF08B9094810BDAF
:1014E000084C4FF4165208492046FFF763FF0448A2
:1014F000FFF7CEFF054A06492046FFF798FFEDE7C4
:101500005C1000206010002050A30000E0000020CC
:101510003913000010B50446FFF768FF00B110BD95
:101520002046FFF761FF0028F9D1FFF7C9FFF6E772
:101530003F2811DC10B50446084B53F82000B0F1E9
:10154000FF3F00D010BD022CFCDC2046FFF7E2FF7D
:10155000024B43F82400F5E700207047E800002024
:1015600070B50C461546FFF7E3FF40B10268D66838
:101570002A462146B047041E08DB204670BD03F012
:10158000C7F9092303604FF0FF34F6E703F0C0F911
:10159000644204604FF0FF34EFE708B503F036FB18
:1015A00008BD10B504460421FFF7F7FF204610BD23
:1015B0007047704708B500F0A3FCFFF7FAFF08BDBD
:1015C00008B5FFF7F5FFFEF783FE08BD70B50646C8
:1015D000FFF7E2FA0546FFF7C6FA04462846FFF78A
:1015E000C2FA031BB342F9D370BD00000749084A91
:1015F000084B9B1A03DD043BC858D050FBDC06485F
:1016000080470648804706480047000070A7000052
:10161000E0000020E80B002001190000D51E0000AA
:101620001D010000FEE7FEE7FEE7FEE7FEE7FEE73E
:10163000FEE7FEE7FEE7FEE71030024B43F820101E
:10164000704700BF000000200F4B1B78062B01D015
:10165000002070470D4B1B6813F00F0F0BD10C4B84
:101660001B6803F0F003302B07D0402B07D0502B22
:1016700007D00020704700207047012070470120EC
:1016800070470120704700BFE00F00F0E40F00F04A
:10169000E80F00F00B4B1B78062B01D000207047A1
:1016A000094B1B6813F00F0F07D1084B1B6803F0A1
:1016B000F003302B03D0002070470020704701203A
:1016C000704700BFE00F00F0E40F00F0E80F00F0FB
:1016D0000F4B1B78062B01D0002070470D4B1B6869
:1016E00013F00F0F0BD10C4B1B6803F0F003302BE2
:1016F00007D0402B07D0502B07D000207047002088
:10170000704701207047012070470120704700BFDB
:10171000E00F00F0E40F00F0E80F00F00B4B1B7837
:10172000062B01D000207047094B1B6813F00F0FE8
:1017300007D1084B1B6803F0F003302B03D00020C7
:101740007047002070470120704700BFE00F00F095
:10175000E40F00F0E80F00F00F4B1B78062B01D0D0
:10176000002070470D4B1B6813F00F0F0BD10C4B73
:101770001B6803F0F003302B07D0402B07D0502B11
:1017800007D00020704700207047012070470120DB
:1017900070470120704700BFE00F00F0E40F00F039
:1017A000E80F00F00B4B1B78062B01D00020704790
:1017B000094B1B6813F00F0F07D1084B1B6803F090
:1017C000F003302B03D00020704700207047012029
:1017D000704700BFE00F00F0E40F00F0E80F00F0EA
:1017E0000B4B1B78062B01D000207047094B1B6860
:1017F00013F00F0F07D1084B1B6803F0F003302BD9
:1018000003D000207047002070470120704700BFC0
:10181000E00F00F0E40F00F0E80F00F00B4B1B7836
:10182000062B01D000207047094B1B6813F00F0FE7
:1018300007D1084B1B6803F0F003502B03D00020A6
:101840007047002070470120704700BFE00F00F094
:10185000E40F00F0E80F00F00F4B1B78062B01D0CF
:10186000002070470D4B1B6813F00F0F0BD10C4B72
:101870001B6803F0F003302B07D0402B07D0502B10
:1018800007D00020704700207047012070470120DA
:1018900070470120704700BFE00F00F0E40F00F038
:1018A000E80F00F00F4B1B78062B01D0002070478B
:1018B0000D4B1B6813F00F0F0BD10C4B1B6803F083
:1018C000F003302B07D0402B07D0502B07D000203F
:1018D00070470020704701207047012070470120A9
:1018E000704700BFE00F00F0E40F00F0E80F00F0D9
:1018F000014B024A1A607047EC0100200090D003AF
:1019000008B5FFF7A1FE28B1804B1B68C3F3042381
:101910007F4A1360FFF7BEFE10B17E4B7E4A1A600D
:10192000FFF7D6FE28B17D4B1B68C3F342337C4AD8
:101930001360FFF7F3FE20B17A4AD36823F0807377
:10194000D360FFF709FF40B14FF080430022C3F896
:101950000C21C3F81021C3F83825FFF723FF10B17D
:10196000714B03221A60FFF73BFF58B16F4B052202
:101970001A60783301221A60703B00221A60043B1F
:101980003F221A60FFF74AFF002846D04FF08052EE
:10199000D2F80414664BC3F82015D2F80814C3F823
:1019A0002415D2F80C14C3F82815D2F81014C3F873
:1019B0002C15D2F81414C3F83015D2F81814C3F843
:1019C0003415D2F81C14C3F84015D2F82014C3F80B
:1019D0004415D2F82414C3F84815D2F82814C3F8D3
:1019E0004C15D2F82C14C3F85015D2F83014C3F8A3
:1019F0005415D2F83414C3F86015D2F83814C3F86B
:101A00006415D2F83C14C3F86815D2F84014C3F832
:101A10006C15D2F84424C3F87025FFF71DFF28B1D8
:101A2000444B1B6803F04F03434A1360FFF73AFF30
:101A300060B14FF08043D3F8003413F0010F05D0AC
:101A40004FF080436FF00102C3F800243B4AD2F804
:101A5000883043F47003C2F88830BFF34F8FBFF370
:101A60006F8F4FF01023D3F80032002B1BDB4FF0A9
:101A70001023D3F80432002B15DBFFF739FF4FF0AA
:101A800080430122C3F818250021C3F804119A608D
:101A90004FF08043D3F80431002BF9D0284B0122BA
:101AA000C3F8402508BD264B0122C3F80425244B6A
:101AB000D3F80034002BFAD04FF010231522C3F8CE
:101AC00000221F4BD3F80034002BFAD04FF0102324
:101AD0001522C3F804221A4BD3F80034002BFAD095
:101AE000174B0022C3F80425154BD3F80034002B04
:101AF000FAD0BFF34F8F1149CA6802F4E062114B6C
:101B00001343CB60BFF34F8F00BFFDE724030010EA
:101B10004035014074C007400DF0ADBA44020010DA
:101B20003C050040F0ED00E0A005004010560040EC
:101B300000C0004058020010E40E004000ED00E03C
:101B400000E001400400FA0508B5044B1B7803B916
:101B500008BD024800F0D2FFFAE700BFF001002004
:101B600008B5034B01221A70002000F0D5FF08BD14
:101B7000F001002008B500F5E0724FF0A04353F8E3
:101B80002230C3F30143032B0BD002210F4B1B6800
:101B9000C34013F0010F03D0012904D002290ED055
:101BA00008BD0121F2E70A4B1B5C13F0400FF5D092
:101BB000084B1B68084A52F820009847F0E7044B8E
:101BC0001B5C13F0200FEBD0F2E700BF08110020E0
:101BD000E41000200C1100206410002008B50E4B0A
:101BE0001B68C34013F0010F09D00C4B1B5C13F0B2
:101BF000020F05D1094B1B5C13F0100F08D108BD73
:101C0000064B1B5C13F0100FF4D101F0DDFEF6E77C
:101C100002F038F8F3E700BF04110020E4100020C0
:101C200010B582B004463F4B1B5C13F0010F04D18A
:101C30003C4B1B5C13F0100F6AD03A4B1B5D13F04A
:101C4000020F04D0374B1B5D13F0100F4DD09DF8E1
:101C5000063003F0FD036FF300038DF80630032315
:101C60008DF804302F4B1B5DC3F38103012B1AD079
:101C7000032B1CD18DF805302A4B1B5D13F0100F80
:101C800019D19DF80520920004F5E0734FF0A041B2
:101C900041F82320012303FA04F4234A1368234361
:101CA000136002B010BD01238DF80530E4E7002376
:101CB0008DF80530E0E71D4A01A9204601F0EAFE53
:101CC0001B4B1B68E34013F0010FE3D0154B1B5D6A
:101CD00013F0400F04D1134B1B5D13F0200FD9D02C
:101CE0000121204601F040FFD4E70023ADF8043085
:101CF0008DF806304FF0A043D3F80435E34003F0ED
:101D000001038DF8053001A9204601F0FBFDC1E774
:101D1000012303FA00F4044A136823EA040313605E
:101D2000BFE700BFE410002004110020751B000075
:101D3000081100200170B1F1FF3F17D010B5044623
:101D4000C9B21F290DD80A490620FFF775FC01F01A
:101D500091FD94F9002007498B5C43F001038B54FB
:101D600010BD532204490548FFF792F8704700BFA1
:101D7000F13C0000E410002070A30000B8A30000B4
:101D800038B5044690F90000B0F1FF3F0ED00D4683
:101D9000C0B2FFF723FF94F90000074B1A5C65F30C
:101DA00083021A54C0B2FFF73BFF38BDB222034989
:101DB0000348FFF76DF800BFE410002070A3000097
:101DC000689D000038B5044690F90000B0F1FF3F6F
:101DD0000ED00D46C0B2FFF701FF94F90000074B8B
:101DE0001A5C65F341021A54C0B2FFF719FF38BDFF
:101DF000BD2203490348FFF74BF800BFE410002061
:101E000070A30000689D000030B40546002300E088
:101E100001332E4A12F93340B4F1FF3F18D002EBE0
:101E2000C30292F90120B2F1FF3F0ED0AC42EFD1D4
:101E30008A42EDD1254A02EBC3035868244B03F8CC
:101E4000105003EB4003597004E04FF0FF3001E005
:101E50004FF0FF30B0F1FF3F10D0B0F1FF3F27D07F
:101E6000B0F1FF3F2FD030BC7047194A02EB43025C
:101E700092F901208A4209D11846EEE70023002B8F
:101E8000EBD1134A12F91320AA42EED00133F6E740
:101E90000F4A02EB430292F90120B2F1FF3F10D149
:101EA0000B4A02F8135002EB430251701846D7E771
:101EB0000023002BD4D1064A12F91320B2F1FF3FC0
:101EC000E6D00133F5E70020CDE700BF68A30000AE
:101ED000F40100200023362B07D8064A52F82310BD
:101EE000054A42F823100133F5E7034A034B9A6091
:101EF000704700BF000000000000002000ED00E07F
:101F000000B583B0052101A8FEF76EFB9DF9042002
:101F1000B2F1FF3F08D0012393404FF0A042C2F836
:101F20000C3503B05DF804FB202202490248FEF79D
:101F3000AFFF00BF2C9D0000689D000008B50A4A55
:101F400000EB800302EBC3030021597400EB800017
:101F500052F830301A6A596A2AB111F0020F02D0D1
:101F60000021D869904708BD4411002010B50A49E6
:101F7000830000EB800201EBC2020024547318447A
:101F800051F830301A6A596A2AB111F0010F02D0A3
:101F90000121D869904710BD4411002010B50B49AC
:101FA000820000EB800301EBC3030024DC735C734D
:101FB000104451F830301A6B596B2AB111F0040FEC
:101FC00002D004219963904710BD00BF4411002046
:101FD00008B50D4B1B7843B10B4B00221A700B4B0D
:101FE000DB7B33B11046FFF7D9FF094B1B7823B9D0
:101FF00008BD0020FFF7BAFFF7E70020044B187078
:10200000FFF79CFFF4E700BF6D1100204411002092
:102010006C11002038B9044B01221A70034B4FF4A5
:102020008012C3F8002170476D11002000E100E02C
:1020300038B9044B01221A70034B4FF48012C3F8D5
:10204000002170476C11002000E100E010B50B4941
:10205000820000EB800301EBC30300241C749C731B
:10206000104451F83030DA6B196C32B111F4807FC2
:1020700003D04FF480715964904710BD4411002083
:1020800030B482B0124B134AC3F808230021C3F8BE
:102090004C11D3F84C210192019AC3F81011D3F8D6
:1020A00010210092009AD3F8002222F02002C3F8F7
:1020B0000022094A00EB800402EBC40401252574C8
:1020C00084F824101022C3F8042302B030BC7047F7
:1020D0000020004010000800441100202DE9F043CA
:1020E00083B000EB8002274B03EBC20393F81290FE
:1020F00089F001029A74244BD3F83C85B8F1000FA3
:1021000029D103B0BDE8F0830137474526D206EB5D
:1021100086031C4A02EBC30301A9586900F0B1FD14
:10212000E0B1184CB50006EB860304EBC303DA19E3
:102130004A441279027001A9586900F0AEFDAB194A
:10214000DB001833234453E8001F013943E8001231
:10215000002AF8D1D8E706460027D6E706EB860323
:10216000084A02EBC3035B7C002BCAD106EB860254
:10217000044B03EBC20301225A743046FFF758FFA9
:10218000BFE700BF441100200020004010B5154BF0
:1021900000EB800103EBC1018A7C82F0010200EBBD
:1021A000800402EBC402134404330F4AC2F83435EE
:1021B0000123C2F83835096AB1F1FF3F0DD0094A51
:1021C00002EBC4039B69032B08D800EB8000054B8E
:1021D00003EBC000012380F8243010BD084601F055
:1021E00047FCFAE7441100200020004010B584B0FD
:1021F00004461F4BD3F8103183B11D4B0022C3F8A6
:102200001021D3F810310193019B00EB8003194A90
:1022100002EBC3031B7C7BB1FFF718FF144BD3F811
:102220004C311BB1124BD3F8103143B1104BD3F8E2
:10223000203183B904B010BDFFF750FFEEE70C4B1F
:102240000022C3F84C21D3F84C310293029B204664
:10225000FFF79CFFEAE7064B0022C3F82021D3F8E2
:1022600020310393039B2046FFF7D4FEE2E700BF33
:10227000002000404411002008B50020FFF7B6FF01
:1022800008BD000038B500283AD004464368B3F1D1
:10229000FF3F0CD0012202FA03F34FF0A042C2F834
:1022A0000835436803F5E073032142F82310A3685F
:1022B000B3F1FF3F06D003F5E0734FF0A0420021D9
:1022C00042F823106168A2684D4BC3F80C15C3F89F
:1022D0001425237D012B19D02169236803EB83008A
:1022E000484A02EBC002126A914223D1637D227DEB
:1022F0001343434AC2F86C35A369C2F8243538BD8C
:1023000040F24E2240494148FEF7C2FDE368B3F176
:10231000FF3F06D003F5E0734FF0A042002142F8E2
:102320002310E268364B4FF0FF31C3F80815C3F8AD
:102330001025D1E7334A02EBC003187F01F044FEB9
:10234000B0B9236803EB83032E4A02EBC3031B6A75
:10235000B3F1FF3F12D12069B0F1FF3F12D12368E2
:10236000216903EB8303274A02EBC3031962BDE72C
:1023700040F27B2224492648FEF78AFD206901F0BD
:1023800023FBE8E7234901F0BDFA08281ED028BB4B
:10239000236803EB83031B4A02EBC3031D7F206901
:1023A00001F058FB02461C49284601F0D3FDD8B97C
:1023B000236803EB8303134A02EBC303187F01F086
:1023C000EDFDB8B9206901F033FBC8E7206901F0E1
:1023D000FBFA1049206901F095FAD8E740F2922201
:1023E00009490B48FEF754FD4FF426720649084888
:1023F000FEF74EFD40F29B2203490548FEF748FDDB
:102400000020004044110020D8A3000020A40000B8
:1024100024A4000038A40000102100402DE9F0435E
:1024200083B0184CDFF86490C4F80893164F00EBA3
:10243000800507EBC505686900F01BFC2023AB6134
:102440000023C4F84C31D4F84C210192019AC4F80D
:102450001031D4F810210092009AD4F8002242F0F2
:102460002002C4F80022AB742A1DC4F834250122CE
:10247000C4F838252B7485F82430C4F8049303B0CD
:10248000BDE8F08300200040441100201000080047
:1024900038B5D0B10446056805EB8502234B53F8E7
:1024A0003230834217D02046FFF7ECFE05EB850360
:1024B0001E4A42F83340002384F82C3094F82D3023
:1024C0002BB32846FFF7DCFD38BD4FF43F721849A7
:1024D0001848FEF7DDFC90F82C30002BE3D190F883
:1024E0002D3033B905EB8502104901EBC202127C95
:1024F000A2B9002BE8D005EB85030C4A02EBC3031D
:102500001B7C002BE0D12846FFF7BAFDDCE728460C
:10251000FFF784FF084B01221A60D5E72846FFF732
:102520007DFF054B01221A60CEE700BF4411002059
:10253000D8A3000020A4000000200040F0B583B024
:10254000002869D00E4615460446554B1B78002BD3
:1025500036D0534B00221A7001F0CAF9002861D01E
:1025600050491420FFF768F84F4BE02283F81423FA
:102570004FF48012C3F880211A604C4F01232122AE
:102580004B49384600F05FFB4A484761002340F85A
:102590001C3B01F0B5FC002847D14FF0FF33454A02
:1025A0001362454AC2F8083344490220FFF744F851
:1025B0003D4B002283F802230422C3F880211A60D5
:1025C00029463046FFF720FC206000EB8003394AA3
:1025D00002EBC302936801339360012B2BD0B6F159
:1025E000FF3F50D06660B5F1FF3F50D0A56000239B
:1025F0006375334AA2614FF0FF32E26022612375B6
:102600002362304B9C4246D0012384F82C30204674
:10261000FFF73EFF03B0F0BD40F243322A492B489A
:10262000FEF736FC01F026F99AE74FF45972264975
:102630002748FEF72DFC204B0822C3F800254FF059
:10264000FF32C3F80C25C3F814254FF08052C3F8AD
:10265000242500EB8000C0000830164A10440430E6
:10266000C3F844050122C3F848250021C3F820110E
:10267000D3F82011019101999A600F4BD3F81C31C6
:10268000002BFAD0ABE74FF0FF336360ABE74FF0BE
:10269000FF33A360ABE70F4B01221A60B4E700BF22
:1026A000F6010020D11F000000E100E034110020FD
:1026B0001011002044110020002000407922000069
:1026C0000050270070110020D8A3000020A40000B3
:1026D00024A40000DC11002008B580B30346B1F546
:1026E000166F32DBB1F5965F39DBB1F5165F39DB7A
:1026F000B1F5615F38DBB1F5964F37DBB1F5E14FEE
:1027000036DBB1F5164F35DBB1F5614F34DBB1F592
:10271000963F34DBB1F5E13F34DBB1F5613F33DBAC
:10272000214A914233DDB1F5E12F33DBB1F5612F61
:1027300033DB1E4A914233DC4FF0706207E040F217
:102740000E421B491B48FEF7A3FB4FF49E229969DA
:10275000914203D09A61012283F82C2008BD4FF4E6
:102760001D22F4E7144AF2E7144AF0E7144AEEE7B0
:10277000144AECE7144AEAE74FF41D02E7E74FF486
:102780006B02E4E7114AE2E74FF0EB72DFE74FF04C
:102790006C72DCE74FF08062D9E74FF0E862D6E771
:1027A0004FF08052D3E700BF8FD003003F420F00AD
:1027B000D8A3000020A4000000B0130000502700A0
:1027C00000F03A0000A04E0000C0750000903A01F1
:1027D00070B582B0002833D0002280F82D20056823
:1027E000FFF756FE05EB85021E4B03EBC2035C6947
:1027F000628992B2E3889BB29A42F9D001A920463D
:1028000000F056FA064601A9204600F05DFA05EBF5
:102810008503DB0003F11802124B134453E8001F39
:10282000013143E80012002AF8D105EB85030D4A77
:1028300002EBC30393F8243043B9307802B070BD83
:1028400040F2125208490948FEF722FB134605EBF5
:10285000850203EBC202002182F82410106A01F005
:1028600007F9EAE744110020D8A3000020A40000E3
:1028700030B583B070B30D460468FFF709FE184BFE
:10288000D3F81C31002BFAD0154B0021C3F81C11D2
:10289000D3F81C210192019A124A04EB840002EB46
:1028A000C000057304EB8404E400083414440434C9
:1028B000C3F844450122C3F84825C3F82011D3F8D2
:1028C0002011009100994FF48071C3F804139A60AD
:1028D00003B030BD40F2435203490448FEF7D8FA32
:1028E0000020004044110020D8A3000020A40000D4
:1028F00010B588B1002280F82D200468FFF7C8FDCC
:1029000004EB8404074B03EBC40463695889DB8838
:10291000C01A18BF012010BD40F26B520249034893
:10292000FEF7B6FA44110020D8A3000020A400004E
:1029300008B570B1036803EB83030B4A02EBC303D2
:102940005B7BDBB25BB9094BD3F81C314BB1012087
:1029500006E04FF4B16206490648FEF799FA0020F6
:1029600008BD0020FCE700BF44110020002000400B
:10297000D8A3000020A40000004870473CA4000039
:1029800030B583B0234B1B7863B1234B00221A6010
:102990001B680093009B214B4FF48032C3F808233F
:1029A00003B030BD01251E4B1D601C4C4FF480331D
:1029B000C4F80833D4F8043523F00303C4F804350D
:1029C000D4F8103523F00F0343F00403C4F8103596
:1029D000D4F8083543F00303C4F808350022C4F8DE
:1029E00040250D4B1A601B680193019B0D4909207E
:1029F000FEF722FE0C4B402283F809234FF40072AD
:102A0000C3F880211A602560084B1D60014B1D70C2
:102A1000C6E700BFE0110020409100400090004058
:102A200004900040A10B000000E100E04490004051
:102A3000034B01221A60443BD3F84405704700BFA2
:102A40004490004010B582B00446FEF7E1FA0B4B0B
:102A5000C3F84045D3F8043313F4803F0AD1084B40
:102A600000221A601B680193019B044B4FF48032D3
:102A7000C3F80423FEF7E4FA02B010BD0090004052
:102A800040910040024B4FF40072C3F800217047A0
:102A900000E100E0024B4FF48032C3F80823704796
:102AA0000090004082B0044B00221A601B68019322
:102AB000019B02B0704700BF4091004001230B4AC8
:102AC00013600C3213600A4B4FF48032C3F80823B2
:102AD000084B4FF40072C3F88020BFF34F8FBFF351
:102AE0006F8F054B00221A70704700BF04900040A2
:102AF0000090004000E100E0E011002072B6054ABD
:102B00001378191E18BF01210170013313700020C2
:102B1000704700BFE1110020054A1378013B137094
:102B200018B9134600221A7062B60020704700BF21
:102B3000E111002010B4034653E8002FA2EB01007E
:102B400043E8000494F0000FF6D15DF8044B7047A1
:102B500010B483B050E8013F9CB2C289144482890A
:102B6000944228BFA41A0289944202BFBFF32F8F58
:102B7000002007E0C4EA030440E80142002AE9D14A
:102B80004FF001008DF807000093009B0B609DF84B
:102B9000070003B05DF8044B704750E8012FC2EA0C
:102BA000024240E80123002BF7D1704710B483B0F4
:102BB00050E8023F1FFAA3F4C288944202BFBFF359
:102BC0002F8F00200DE0C28914448289944228BFCF
:102BD000A41AC3EA044440E80242002AE8D14FF0B4
:102BE00001008DF807000093009B0B609DF8070023
:102BF00003B05DF8044B704750E8022FC2EA22424E
:102C000040E80223002BF7D1704782B050E8022F32
:102C1000C188B2EB324F4FF0000317BF92B241EAC6
:102C2000014142EA014104E04268B2EB324F08BF81
:102C3000012340E80212002AE8D18DF807309DF800
:102C4000070002B0704781B110B40C46B2FBF3F13B
:102C500003FB112189B251B9046041608160828116
:102C6000C38108465DF8044B70470E207047092069
:102C7000F8E708B5FFF7C9FF08B1002008BD11202B
:102C8000FCE738B505460C46FFF762FF18B1286827
:102C90002388184438BD0020FCE708B50A884B8813
:102CA0009A4201D0002008BDFFF777FF0120FAE724
:102CB00038B505460C46FFF779FF18B128686388D8
:102CC000184438BD0020FCE708B50A884B889A42B2
:102CD00001D0002008BDFFF78FFF0120FAE70000B8
:102CE00038B50546002400E00134032C07D8044B16
:102CF00053F82430002BF7D028469847F4E738BD26
:102D0000F01100200378013B052B34D8DFE803F0F5
:102D100003061120293100230B70704701230B702B
:102D200003898B818388CB81C3688B6000230B74FC
:102D3000704702230B7003898B818388CB81C36822
:102D40008B60837D062B14BF002301230B74704717
:102D500003230B70C3888B810389CB81C3688B608D
:102D6000704704230B70C3888B810023CB818B6059
:102D7000704705230B707047884207D20368B3F190
:102D8000FF3F01D0012070470020704700207047AE
:102D90004388033300EB8300704738B504460D4683
:102DA000FFF7F6FF854208D3A2884FF6FF739A42D9
:102DB00005D023882BB1002038BD0220FCE701207C
:102DC000FAE70120F8E7000060B10A4AD2688242BF
:102DD0000AD8084A1269824208D310F0030F07D1BB
:102DE0000120704700207047002070470020704786
:102DF00000207047D40B00200023012B18D810B4FA
:102E000003E001339BB2012B0ED803EB8302094C84
:102E100004EB820252688A42F3D202F580528A425F
:102E2000EFD90380002000E00A205DF8044B7047D2
:102E30000A207047201200208B7D022B04D9CB88FA
:102E40000289134403330381CA8843899B1A033BD5
:102E500043817047F8B50E4600EB8000134B03EB3F
:102E60008000446804F580550868A0B1FFF790FF22
:102E7000044629462046FFF77FFF074698B12946BA
:102E80002046FFF78AFF012807D002280AD0002831
:102E9000EFD1346007E00834EBE72046FFF778FF16
:102EA0000446E6E700273846F8BD00BF20120020A0
:102EB00070B582B006460D464068FFF785FF20B129
:102EC0003289174B1B899A4218D000232B802B88FC
:102ED000012B23D80023019301A92888FFF7BAFF0B
:102EE0000146B8B1019B9C6832689442F4D173608A
:102EF0000B4B1B893381084602B070BD3268716884
:102F00008B689A42E1D12846FFF776FFB0FA80F14C
:102F10004909F0E72B8801332B80D8E70021EAE745
:102F200008120020F8B51C461D4B1B78002B32D030
:102F300005460F461646002A2FD034B9052027E053
:102F400000232360A3880133A380A388012B20D80A
:102F500003EB8303134A12F82330002BF2D12146EE
:102F6000A088FFF777FF0028EAD023681DB1998871
:102F70002A889142F3D11FB119883A889142EED143
:102F80009B68336023687360074B1B893381002083
:102F9000F8BD0A20FCE70220FAE70520F8E700BFA9
:102FA0000012002020120020081200200B4A138972
:102FB000013313810023538013730CE003EB83016F
:102FC0008A0007498A5CB2FA82F25209034919441D
:102FD0008A7201339BB2012BF0D97047081200208E
:102FE0002012002030B40546002301E001339BB2DB
:102FF000012B19D80E4A1A44927A002AF6D00C4AAC
:103000001A440021917203EB83020A4901EB820208
:10301000D268002AEAD103EB830401EB8404207C0C
:103020000028E3D02B8000E0002030BC704700BFB8
:103030000812002020120020044B5B685B880333D9
:10304000034A918811FA83F3938070470812002095
:103050005C12002030B40B490D680B4B5B880B48A9
:1030600003EB8304A200024454680C6055608C8812
:1030700003EB83039A001044048102238B8030BC4D
:10308000704700BF5C1200200812002020120020B0
:1030900008B5124B1B78072B0AD8DFE803F00409A8
:1030A000090A1016161AFFF781FF0C4B01221A703D
:1030B00008BDFFF7C1FF094B02221A70F8E7FFF7BE
:1030C000C9FF064B06221A70F2E7044B07221A705A
:1030D000EEE7024B01221A70EAE700BF0812002057
:1030E00008B501460148FFF7E3FD08BD481200207E
:1030F00008B5064B05221A70054902238B80002370
:1031000001220968034800F04CFB08BD08120020AA
:103110005C120020D40B002008B50D4B5B8803EB3C
:1031200083010C4A02EB8102D26872B9084A042179
:10313000117003EB8303074901EB83010023012294
:103140004968054800F02DFB08BDFFF7D1FFFBE7FC
:103150000812002020120020D40B002000B583B0FC
:10316000002300930823044A04490968044800F036
:10317000D8FA03B05DF804FB50A400005C120020F4
:10318000D40B002008B5044B07221A7000225A60A5
:10319000FFF7E4FF08BD00BF0812002000B583B0B0
:1031A0000146002300930823034A044800F0B9FABB
:1031B00003B05DF804FB00BF48A40000D40B00205E
:1031C000F8B530B90B79032B5DD8DFE803F0071DA4
:1031D00037422F4B00225A60012005E001230B717A
:1031E000FFF7BCFF00284ED1F8BD0B4600EB800274
:1031F00092000021995400EB800003EB80004068AE
:10320000FFF7CCFF01230FE00023012B0AD818465B
:1032100003EB83021F4911F82220022AE5D0013373
:103220009BB2F2E700230F20002BDBD1184B0122C9
:103230001A7000225A6041F61D50D5E700230B7129
:10324000154902228A8001220968144800F0A9FA6F
:10325000C8E700250D71104C2068FFF79FFF104B49
:103260005B8826680B4903EB830201EB82025768F7
:1032700027605660A68816810222A28003EB830392
:103280009340CD54AEE7024B00225A600E20ABE7CC
:1032900000120020201200205C120020D40B00201D
:1032A0000812002008B5064B06221A705B8803EB53
:1032B00083039A00034B13445868FFF76FFF08BD60
:1032C000081200202012002000B583B0022383756D
:1032D000002300930423C218044800F022FA10B916
:1032E00003B05DF804FB0E20FAE700BFD40B00200A
:1032F00000B583B0036973B1032383750023009382
:10330000042300F10C020831054800F00AFA20B944
:1033100003B05DF804FB0123EFE70E20F8E700BFE0
:10332000D40B002000B583B001238375C38800222D
:1033300000929B0002690C31044800F0F2F910B9C8
:1033400003B05DF804FB0E20FAE700BFD40B0020A9
:1033500000B583B00378032B0ED0062383750023BA
:103360000093042300F108021944054800F0D9F93C
:1033700020B903B05DF804FB0523EFE70E20F8E762
:10338000D40B002010B582B00C4600230093042318
:10339000084A0146084800F0C4F940B904EB840427
:1033A000064901EB84040123237402B010BD0E20F2
:1033B000FBE700BF44A40000D40B00202012002033
:1033C00070B50C468B8A03EB83022B4D05EB82050F
:1033D000A8B9294A03EB830102EB8101496803EB99
:1033E000830302EB83031E8901EB8606A37D062B74
:1033F0000AD8DFE803F0142C20260B323C002846C4
:10340000FFF71AFD012614E00F260EE01B480023EB
:103410004360A36903601A49FFF74AFD50B3314680
:103420002046FFF751FF06461EB121462846FFF70A
:1034300003FD304670BD31462046FFF759FF064672
:10344000F2E731462046FFF76DFF0646ECE73146CE
:103450002046FFF77DFF0646E6E70623A375084BE7
:103460001988064B5868FFF78DFF0646DCE741F6E2
:103470001D56DAE70A26DCE720120020E4110020BE
:103480006412002010B584B0044600230193029317
:10349000C36800930DF10E016846FFF709FD10B9EE
:1034A0000A2004B010BD01988388E380038823813B
:1034B000BDF80E10FFF766FFF3E7000030B583B0EC
:1034C00009484268094B19689C88538803339BB2AA
:1034D00003250570002000909B0001EB8401044847
:1034E00000F01FF903B030BD081200205C1200206C
:1034F000D40B002008B5064B191D5888FFF7AAFC0D
:1035000010B1FFF7DBFF08BDFFF706FEFBE700BFCA
:103510000812002008B50748FFF764FD10B1FFF757
:10352000E9FF08BD044B00221A705A805A6041F628
:103530001D50F6E70A1200200812002030BB08B523
:10354000144B1B7B6BB1134B00221A73114B1B786E
:10355000013B062B1CD8DFE803F0070A0D101B13F4
:103560001600FFF795FDF1E7FFF7D4FF08BDFFF761
:10357000C1FFFBE7FFF7A2FFF8E7FFF7CDFDF5E797
:10358000FFF790FEF2E7FFF7FDFDEFE70120704740
:103590000F20EBE70812002000B585B0094B01AA07
:1035A00000210630FFF7BEFC38B9064B9988029817
:1035B000FFF7E8FE05B05DF804FB024B00221A603D
:1035C0005A60F7E768120020B0B908B50B79012BF3
:1035D0000AD0022B12D00BB10F2008BD02230B71B1
:1035E0000846FFF74FFFF8E70846FFF7D5FF0A2820
:1035F000F3D141F61D50F0E70120704741F61D5010
:10360000EBE7000008B501460148FFF75DFB08BD88
:103610004812002008B501210348FFF78BFA003853
:1036200018BF012008BD00BF5812002010B586B099
:10363000044625E02848FFF753FD284B186023E097
:103640002046FFF7BDFD002844D0002301930393DB
:103650000493059341F61D53984239D002901F4CB4
:1036600001A92068FFF74EFB01A8FFF739FB0023F3
:1036700023601948FFF7C6FFFFF7CCFF50B30024C3
:10368000164B1B68002BD5D0144B19680B78013BE7
:10369000052B1BD801A252F823F000BF41360000D1
:1036A000B5360000B5360000BD360000BD3600005E
:1036B000C53600002046FFF783FEC4E72046FFF72B
:1036C00083FFC0E72046FFF739FFBCE70F20BCE7C8
:1036D0000020C3E706B010BD181200201C12002005
:1036E00008B54068FFF7A2FF08BDC3688B4206D843
:1036F000114401390369994203D900207047002021
:1037000070470120704710F0030F0CBF012000200C
:10371000704743681B68013B0B420CBF012000202F
:10372000704770B32DE9F04182B00F4616461C4633
:10373000054642B3D0F80080B8F1000F25D033B36E
:1037400043685A68B4FBF2F302FB13430BBB084611
:10375000FFF7D9FFF8B13046FFF7D5FFE8B12246B1
:1037600039462846FFF7C1FFC8B1D8F80C80089B3E
:1037700000932346324639462846C04702B0BDE88A
:10378000F0810E2070470E20F8E70820F6E70920A8
:10379000F4E70920F2E71020F0E71020EEE7102010
:1037A000ECE7E0B12DE9F041884614461F46054696
:1037B0000668B6B1BAB1FFF7ACFFB0B16B681A6872
:1037C00004FB02F241462846FFF78FFF78B13669C5
:1037D0003B46224641462846B047BDE8F0810E20D0
:1037E00070470820F9E70920F7E71020F5E71020D7
:1037F000F3E708B5FDF70CFC08BD08B5FDF720FCA4
:1038000008BD000070B40646154662B1002365B1DC
:103810000824A34218D20E4A52F82320B2F1FF3FE7
:1038200005D00133F5E70823F1E70C24F1E758B29E
:10383000074A941984F8300042F8231035B9083B40
:10384000134483F8506001E04FF0FF3070BC7047C4
:1038500070120020064B4FF0FF3243F8202007285B
:1038600004D908381844FF2380F85030704700BF4F
:103870007012002010B582B0194B93F8584064BB09
:1038800023461F2B07D8164A1A44FF2182F830100E
:103890000133DBB2F5E70B2C05D82046FFF7DAFF42
:1038A0000134E4B2F7E70E4A002050650D4BE021E9
:1038B00083F806134021C3F8801119600A4B186081
:1038C0001B680193019B094B4FF00041C3F804139F
:1038D000012382F8583002B010BD0820FBE700BF7A
:1038E0007012002000E100E07C61004000600040B8
:1038F000034B93F85800003818BF0120704700BFF1
:1039000070120020F8B52D4B034493F93030B3F119
:10391000FF3F01D00820F8BD04460D468B7803BB5D
:10392000264B0344FE2283F830206B78012B3DD0D8
:103930000123A3404FF0A042C2F80C3504F5E07219
:103940004FF0A043032143F8221024FA01F304F0BE
:1039500007041B4A0120A040D45C0443D454002037
:10396000D9E701220021FFF74DFFB0F1FF3F23D03F
:1039700029786A78134E00F5A27056F8203023F4A7
:10398000981323F4F85346F8203056F82070230299
:1039900003F4F853090401F440310B43120502F417
:1039A000801213433B4346F82030BEE7A3404FF05C
:1039B000A042C2F80835C1E70420ACE7701200202D
:1039C000C41200200060004038B50446164B034482
:1039D00093F93000C0B2072819D9134B1A19FF21E7
:1039E00082F83010E10804F00700012282405433CD
:1039F000585C02420AD004F5E0744FF0A040022562
:103A000040F82450585C20EA02025A5438BDFFF7AF
:103A100021FF054B234493F9303003F5A273034A89
:103A2000002142F82310D8E7701200200060004007
:103A3000064B034493F93030054903F5A27351F85E
:103A4000232042F0030241F8232070477012002027
:103A500000600040054B034493F93000C0B2800081
:103A6000C0B200F1804000F5C040704770120020E5
:103A7000074B034493F930301833DBB29B00DBB2C1
:103A800003F1804303F5C04301221A60704700BF71
:103A900070120020314B034493F93030002B01DBCE
:103AA0000820704770B504460D461146AA78C2F347
:103AB0004002FFF7A7FEB0F1FF3F4DD0AB7813F007
:103AC000040F16D113F0010F31D04FF0A04204F5CE
:103AD000E07152F8213023F0020342F82130E3086C
:103AE00004F007011E4E012202FA01F1F25C0A43C2
:103AF000F254AB7813F0020F22D02B78194900F55D
:103B0000A27051F8202022F4473222F4407241F88A
:103B1000202051F82020240204F4F8541B0403F45C
:103B200040331C43144341F82040002070BD6A78A4
:103B3000920004F5E0734FF0A04141F82320CEE756
:103B400008382A78054B184490F8503043EA82131D
:103B500080F850300020E9E70420E7E770120020E9
:103B6000C4120020006000402E4B034493F9303013
:103B7000072B29DDA3F108022A4B134493F9503097
:103B8000C3F38113032B13D0012B1BD003234FF05E
:103B9000A04200F5E07052F8201021F4403142F8C4
:103BA000201052F8201041EA034342F820307047B9
:103BB0004FF0A042D2F81025C24012F0010FE6D11A
:103BC0000223E4E70223E2E7DAB2072A28D870B436
:103BD00083B003F1400292B2920092B2124D03F50B
:103BE000A27655F8264044F0010445F8264002F13B
:103BF000804202F5C0420024146012680192019ACA
:103C000059B1084A104490F9301052F8212022B1DD
:103C1000012202FA03F3C5F8043303B070BC704705
:103C2000704700BF7012002000600040134B034437
:103C300093F93030072B0EDD4FF0A04300F5E07014
:103C400053F8202022F4403243F8202053F820205B
:103C500043F820207047DAB2072A0DD8084A03F546
:103C6000A27052F8201021F0010142F82010012129
:103C700001FA03F3C2F80833704700BF7012002046
:103C80000060004070B50446FFF7D0FF154B234499
:103C900093F93030DAB2072A05D803F5A273124A35
:103CA000002142F82310E20804F0070101238B40B1
:103CB0000E49885C03420AD004F5E0704FF0A0453D
:103CC000022645F82060885C20EA03038B540548EF
:103CD000044494F93000C0B2FFF7BCFDFF2384F820
:103CE000303070BD7012002000600040C41200200F
:103CF000F0B587B00025059501204FF48073294663
:103D000003E0400004339BB20131072912D803F1CC
:103D1000804202F5C0421468012CF2D1754CD4F8EF
:103D200004432042EDD00024146012680392039AE9
:103D30000543E6E7704B1B68012B06D015F0FF0F1B
:103D40002FD1002D30DB07B0F0BD6B4A002313608C
:103D500012680492049A45F0004505AA06E04FF067
:103D6000A041D1F8101542F8041B0133002BF6D006
:103D7000E4E776000134072CE3D83542F9D05D4BF7
:103D800004F5A27253F82200C0F3042053F8221065
:103D9000C1F30141594B53F82430002BE9D0984727
:103DA000E7E701260024E6E70023009313B100258E
:103DB0002C460BE006AA02EB83024FF0FF3142F8DB
:103DC000141C0133F2E7032922D00134032C5BD801
:103DD0004A4B234493F95030D9B203F03F00B3F17A
:103DE000FF3FF2D0C20801F00703012606FA03F3F1
:103DF00006AE06EBD00616F8146C3342E5D08909FE
:103E00003E4E371897F9307056F82770002FDAD0E9
:103E100003291AD000F5E0764FF0A04C5CF826603C
:103E2000C6F301460DF1180C624412F8042C13403D
:103E300001D0022E03D0002BC7D1032EC5D10329F8
:103E400009D0002FC1D0B847BFE71DF802601E435C
:103E50000DF80260DEE7022E14D04FF0020C4FF096
:103E6000A04300F5E07253F8226026F4403643F890
:103E7000226053F8226046EA0C4643F8226001357E
:103E8000EDB2DEE78C46EAE7A5B9002D3FF45BAF63
:103E90008DE74FF0A041D1F8101542F8041B013313
:103EA000002BF6D0002343B10123002B7FF44BAF4E
:103EB00000231BE0002302AAF2E706AA02EB83021A
:103EC00052F8101C52F8042C914201D10133EAE758
:103ED0000023EAE706AA02EB830252F8101C42F81C
:103EE000041C52F8181C42F8141C0133002BF1D0AA
:103EF000CBE700BF006000407C61004070120020F2
:103F00002DE9F0418046114E0025042707E00020EE
:103F1000FFF773FCBFB126EA04060135EDB296B196
:103F20000020FFF766FC0124AC402642EFD0084B8E
:103F30001B6814EA0302EAD1234305490B6088F8A1
:103F400000501746E3E73846BDE8F081FFFF0F0059
:103F5000CC120020B1B110B40C46AAB101238340A9
:103F6000C3F3130191B10B4909680B4210D00A4BFE
:103F7000A23043F8304003EBC000426000205DF8FF
:103F8000044B70470E2070470E20F8E70720F6E735
:103F90000820F4E7CC12002000F00140012303FACE
:103FA00000F0C0F313031BB1054B1B68184204D08B
:103FB000044BC3F80405002070470820704700BF79
:103FC000CC12002000F00140012303FA00F0C0F3FE
:103FD00013031BB1054B1B68184204D0044BC3F8F4
:103FE0000805002070470820704700BFCC12002051
:103FF00000F0014000B583B0074B00221A601B6837
:104000000193019B054BD3F80805054B1B68C0B213
:10401000984703B05DF804FB00D1004000D0004099
:10402000D012002084B010B402AC84E80E000B461D
:1040300071B9039A62B1C3690133C361026A9342E1
:1040400003D083600123036104E00123436201E0A4
:10405000012B03D05DF8044B04B070474362F9E7CD
:10406000436A012B00D070470023C36183600122A3
:1040700002614362F7E7000038B504460D4600F0E0
:104080002BFB002383B9191D04EB81000022426041
:10409000981D44F82020981C44F8202044F8212042
:1040A000E1180A730133EDE7034B23600023E3615A
:1040B0002562204638BD00BF60A4000010B404692A
:1040C0005CB100239C4205D9C218117F82F81C11F3
:1040D0000133F7E700F58E7383605DF8044B70479A
:1040E00084B038B5044605A880E80E009DF82C3051
:1040F000012B14D0022B1AD04BB104F11C0001F09B
:104100007FFC01302061BDE8384004B07047069A5A
:10411000D4F81C1204F11C0001F0E2FBEDE7089A50
:10412000D4F81C1204F11C0001F0DAFBE5E704F1FD
:104130001C05079805F072F802460B46D4F81C12CD
:10414000284601F0CDFBD8E738B504460D4600F00F
:10415000C3FA002383B9191D04EB810000224260D9
:10416000981D44F82020981C44F8202044F8212071
:10417000E1180A730133EDE7054B2360C4F81C52C4
:104180000023237784F81C3101232373204638BD94
:1041900080A40000012383600361704710B50346CB
:1041A0008168426801EB620012F0010F05D05410E3
:1041B0000A591B68D358984710BD1B68FBE7034694
:1041C00007C983E8070070477047000070B48BB0E0
:1041D00004460E46694681E80C0003AA03C982E83A
:1041E000090005AD85E8090007AA82E809000996DB
:1041F00007CA84E80700034BE36020460BB070BC9D
:10420000704700BF98A40000F0B52DED028B8BB075
:1042100004460F4600F060FA002383B9191D04EB31
:10422000810000224260981D44F82020981C44F828
:10423000202044F82120E1180A730133EDE72646D7
:10424000254B46F8203B3046FCF796F8234B049369
:10425000002505952B46214A21466846FFF7B6FF03
:10426000384604F0B9FF1AA3D3E9002305F02EF86D
:1042700005F024FB08EE100A0695079508950995A8
:10428000039B1BB15B68694606A89847039B09938B
:10429000DFED137A68EE277A17EE900A05F076FBC9
:1042A00002460B4606A93046FCF7F5F8099B13B108
:1042B0009B6806A89847039B13B19B68684698477C
:1042C00020460BB0BDEC028BF0BD00BFAFF3008009
:1042D000FCA9F1D24D62503FB89C0000954100000E
:1042E0000024744910B402220260012242600021BD
:1042F0000161202484600524C4604161826141F22F
:104300002102C2614FF6FF7202625DF8044B7047F2
:1043100010B54FF080430024C3F8004101221A6019
:1043200003E00A20FDF752F9013442F20F739C4278
:1043300007DC4FF08043D3F80031002BF1D001208F
:1043400010BD0020FCE710B5044620234362002383
:104350001F2B04DCE218002111710133F8E720461D
:10436000FFF7D6FF00232360204610BDF0B589B0CB
:1043700006460F46694681E80C000E9D404C00231E
:10438000C4F8FC3F0A20FDF721F90123C4F8FC3FE3
:10439000E9680139994203DD042902DD042100E0C6
:1043A0000221AB6873626B68354AC2F8103500248D
:1043B000C2F81445AB6843EA032343EA0143A86902
:1043C00043EA0063686943EA4063C2F8183555233D
:1043D000C2F854359DF8003003939DF801300493E2
:1043E0009DF8023005939DF8033006939DF8043044
:1043F00007932346994209DD08AA02EB830252F88B
:10440000142CD800824014430133F3E71C4AC2F84D
:104410001C4508A901EB830313F8143CC2F82435AA
:104420000223C2F83435EB69C2F838352B6AC2F87A
:104430003C3540F20113C2F850362B6803F07F037D
:10444000C2F808350436C2F804650023C2F82C35DA
:104450002B69C2F80C35012F0AD03FB9084B012255
:10446000C3F830252121C3F800125A6009B0F0BD0D
:1044700013460022C3F830250322C3F80022ECE7DC
:10448000001000400023426A9A4216DD10B4CC5C52
:10449000C21814710133426A9A42F8DC0D4B0122B2
:1044A0001A600C4BD3F81031002BFAD0094B0022C4
:1044B000C3F810215DF8044B7047064B01221A60C7
:1044C000044BD3F81031002BFAD0024B0022C3F872
:1044D000102170470010004008B5FFF7D3FF08BD5A
:1044E0000E4BD3F80C31012B01D0002070470B4B41
:1044F0000022C3F80C21D3F800341BB90123036058
:10450000002070471346426A9A4204DDC2181279AD
:10451000CA540133F7E70120704700BF0010004084
:1045200008B5FFF7DDFF08BD84B010B5044603A849
:1045300080E80E00E369012B05D09DF82430012BA3
:1045400005D0032B0CD0BDE8104004B0704706998D
:1045500004F1740001F0E6F90123C4F8B430F2E785
:1045600007980023089A9A4205D9C15CE21882F89C
:1045700074100133F6E70123C4F8B430E3E770B5F3
:10458000044600F14C0600F1940529463046FFF739
:10459000C7FF10B1A560236B2361D4F8B43003B911
:1045A00070BD0023C4F8B43004F174013046FFF745
:1045B00093FFF5E72DE9F04383B004460E46174616
:1045C000984600F089F8002080B9031D04EB8302AF
:1045D00000255560821D44F82250821C44F8225068
:1045E00044F8235023181D730130EDE72546214B75
:1045F00045F8283B2846FFF775FE04F14C0948466C
:10460000FFF7A1FE9DF82C3084F820309DF8303063
:1046100084F821309DF8343084F822309DF8383009
:1046200084F823309DF83C3084F82430C4F8288086
:10463000E7620A9B2363E661AEB901210095636AD4
:10464000226A4846FFF792FE0023C4F8B4300322E2
:1046500022731F2B09DCE218002182F8741082F803
:1046600094100133F5E70021E8E7204603B0BDE8E8
:10467000F08300BFACA4000000207047002070470A
:104680000020704784B001A880E80E0004B0704795
:1046900070470000024A136801331360704700BF7F
:1046A0002C130020012800D070474FF6FF73994269
:1046B000FAD110B5044C2046FBF75EFE034A0449CC
:1046C0002046FCF7B4FE10BDD8120020E000002008
:1046D000110400004160704710B50446084B0360A8
:1046E000084B1B684BB1084B186810B12146FFF707
:1046F000F1FF054B1C60204610BD024B1860F2E72D
:10470000CCA4000018130020241300204068704738
:1047100030B58DB00446006803681B68616898472F
:10472000002828D00546206803685B6861689847C0
:10473000E36805938DF82C000A9500230693002367
:104740000793184B0893032809D8DFE800F00216F6
:10475000241D206803689B68616898470690A468D8
:104760002368DD680CAB13E90F008DE80F0005AB83
:104770000ECB2046A8470DB030BD206803689B686B
:10478000616898470890EAE7206803689B68616859
:1047900098470990E3E7206803689B686168984739
:1047A0000790DCE728A000000161704710B50446BF
:1047B000016042608360029BC36000230361084B79
:1047C0001B684BB1074B186810B12146FFF7ECFF8F
:1047D000044B1C60204610BD014B1860F2E700BF7F
:1047E0001C130020201300200069704700B585B01D
:1047F00000230B4A1360019302930A4B00930A4B68
:1048000003934FF47A72002369460848FBF743FE8E
:10481000039B13B19B686846984705B05DF804FB9D
:104820002C13002095460000D09C0000D8120020D8
:1048300038B50025164B1B683BB3164A1268002A90
:10484000F8D1154A1468002CF4D0124A01211160E5
:10485000013B0F4A13600D443CB12046FFF758FF5F
:104860002046FFF7C1FF0446F6E70C4B1C6844B135
:1048700023681B69204698472046FFF747FF0446F8
:10488000F5E7044B00221A60D4E7284638BD00BF84
:104890002C130020281300201C13002018130020C4
:1048A00008B54FF6FF710120FFF7FCFE08BD0000C0
:1048B00010B502FB01F1FCF7D5FA044668B150F8D7
:1048C000042C22F00302043A242A18D8132A06D80A
:1048D00002460023C2E900339360204610BD002346
:1048E0001B2AC0E900330FD9242AC0E902330ABFCA
:1048F000C0E9043300F1100200F11802E9E70021D9
:1049000000F09CFD204610BD00F10802E1E700BF69
:10491000014B1868704700BFF8010020F8B5244F1C
:104920000C460646FCF78CFDBB685D68C4F57E61ED
:104930000F3125F003054B1923F47F6323F00F0398
:10494000A3F58054B4F5805F07DB0021304600F00A
:10495000B5FFBB682B44984204D03046FCF774FD89
:104960000020F8BD6142304600F0A8FF01300DD0B4
:10497000104AB96813682D1B45F0010530461B1B12
:104980004D601360FCF760FD0120F8BD002130464A
:1049900000F094FFBA68831A0F2BDEDD064C054940
:1049A000246843F00103001B53600860D5E700BF93
:1049B0002806002030130020300A002000295ED095
:1049C000F8B50C460646FCF73BFD54F8043CDFF80E
:1049D000F0C123F00101A4F108004218DCF80870CE
:1049E0005568974225F0030500F08880DF07556081
:1049F00033D454F8087CC01B0CF108048368A3422C
:104A0000394469D05719D0F80CE07F68C3F80CE03E
:104A1000CEF80830FB0740F1968041F00103436077
:104A20001160B1F5007F33D2CB08DCF804400133CC
:104A30004A090121914021430CEBC3025CF8334049
:104A4000CCF80410083AC0E902424CF83300E060A8
:104A50003046BDE8F840FCF7F7BC53195B68DF0748
:104A60000ED429440CF108049368A34273D0D4688F
:104A7000DC6041F00102A36042604150D1E7704721
:104A800041F00103B1F5007F44F8043C1160CBD341
:104A9000B1F5206F4FEA51234AD28B0903F1390552
:104AA000ED0003F138025CF805300CEB0504083C1E
:104AB0009C4259D05A6822F003028A4202D99B686C
:104AC0009C42F7D1DC68C0E90234A060D86030466F
:104AD000BDE8F840FCF7B8BC53195B68DB0766D447
:104AE000D2E90223294441F00104D3609A60446072
:104AF00041503046BDE8F840FCF7A6BCDB0729442E
:104B000007D454F8083CC01A1944D0E90223D360F2
:104B10009A60294B1B6841F001028B424260CCF83D
:104B2000080095D8254B30461968FFF7F7FE8FE748
:104B3000142B0AD9542B21D80B0B03F16F05ED0070
:104B400003F16E02AFE729448EE703F15C05ED0047
:104B500003F15B02A7E741F00103CCE90400C0E9DF
:104B600002444360415073E7DCF8041092100125C1
:104B700005FA02F20A43CCF80420A4E7B3F5AA7FB1
:104B800006D8CB0B03F17805ED0003F177028AE735
:104B900040F25452934206D88B0C03F17D05ED0090
:104BA00003F17C027FE74FF47E757E227BE741F0C4
:104BB0000103436011604BE7340A002060130020BA
:104BC0002806002070B50D4E0D4D761BB61006D090
:104BD000002455F8043B01349847A642F9D1094E08
:104BE000094D761B05F056F8B61006D0002455F88E
:104BF000043B01349847A642F9D170BDA80B0020B0
:104C0000A80B0020B40B0020A80B0020024B01468B
:104C10001868FCF734B900BFF80100202DE9F04F07
:104C200001F10B05162D83B0064624D8102900F299
:104C3000B780FCF705FC102502211823DFF8F0846B
:104C40004344A3F108025C68944200F0B5806368B5
:104C500023F003032344D4E902515A68E96042F087
:104C6000010230468D605A60FCF7EEFB08342046A6
:104C700003B0BDE8F08F35F0070500F19180A9423F
:104C800000F28E80FCF7DCFBB5F5FC7FC0F0908174
:104C90006B0A00F08C80042B00F26681AB0903F1F3
:104CA000390103F13807CB00DFF884844344A3F1D2
:104CB00008005C68A04206D10CE0002A80F2228144
:104CC000E468A04206D0636823F003035A1B0F2A4E
:104CD000F3DD3946D8F81040DFF858C4644577D082
:104CE000626822F00302531B0F2B00F36F81002B2D
:104CF000C8E904CC80F26081B2F5007F80F01081B9
:104D0000D3080133500901228240D8F8040058F832
:104D10003370A76008EBC30E0243AEF10800E060F9
:104D2000C8F8042048F83340FC608B1001209840FC
:104D3000904254D8104206D121F0030140001042A5
:104D400001F10401FAD008EBC1094C468E46E76830
:104D5000BC4207D114E1002B80F21B81FF68BC42EA
:104D600000F00E817A6822F00302531B0F2BF2DD54
:104D7000D7E902E4791945F001057D6043F00105AA
:104D8000CEF80C403046C4F808E0C8E90411C1E987
:104D900002CC4D60BB50FCF757FB07F1080402E062
:104DA0000C2333600024204603B0BDE8F08F4FF49D
:104DB000007340213F2777E7DC68A34208BF023138
:104DC0007FF445AFD8F81040DFF868C3644587D159
:104DD000D8F804208B10012098409042AAD9D8F826
:104DE0000840676827F00307BD4202D87B1B0F2BE2
:104DF00077DCDFF84493CA4BD9F800201B680132F6
:104E00002B4404EB070A00F02E8103F580530F3387
:104E100023F47F6B2BF00F0B5946304600F04EFD0C
:104E2000411C024600F0EB80824500F2E680BD4B5B
:104E3000196859441960084600F04B81D9F80010F0
:104E4000019301311BBFA2EB0A0A5044C9F80020AC
:104E5000186012F0070A00F01481CAF108010A4430
:104E6000CAF5805193440831A1EB0B01C1F30B0942
:104E700049463046009200F021FD421CDDE9002346
:104E800000F05C81801A00EB090B1968C8F8082053
:104E90004BF00100494444455060196000F0268100
:104EA0000F2F40F2258160680C3F27F0070700F0C4
:104EB000010004EB070C38434FF0050E0F2F606024
:104EC000CCE901EE00F2428150681446964B1A6814
:104ED0008A4238BF1960954B1A688A4238BF1960F8
:104EE00090E0621943F0010345F00105656030462A
:104EF000C8F808205360FCF7A7FA0834204603B02E
:104F0000BDE8F08F2344E1685A68A56842F00102C9
:104F1000E96030468D605A60FCF796FA083442E743
:104F2000B2F5206F4FEA522361D3142B00F2BA80FE
:104F300003F15C00C0005B3308EB000758F8000089
:104F4000083F874200F09280436823F003039342B6
:104F500002D980688742F7D1C768D8F80420C4E92D
:104F60000207BC60C460E0E6142B59D9542B00F250
:104F7000A1802B0B03F16F0103F16E07CB0093E6C9
:104F80000EF1010E1EF0030F04F108047FF4DFAEF2
:104F900051E03A443C465368F96854F8085F43F0DE
:104FA000010353603046E9608D60FCF74DFAFAE684
:104FB000E90805F1080341E622443046536843F00E
:104FC000010353600834FCF73FFAECE6611943F043
:104FD000010745F0010565603046C8E90411C1E9E3
:104FE00002CC4F60A350FCF72FFA0834DBE693099C
:104FF00003F13900C00038339EE7444564D0D8F847
:105000000840606820F0030B5D45ABEB050302D858
:105010000F2B3FF766AF3046FCF716FA0024C2E6C6
:1050200003F15C0103F15B07CB003DE659F8083959
:105030004B4540F0AA8011F0030F01F1FF31F5D18B
:10504000D8F8043023EA0003C8F80430400098423E
:105050003FF6C5AE18B9C2E640000EF1040E184284
:10506000FAD071466FE603F1100BD5E69A104FF0B7
:10507000010ED8F804300EFA02F21A43C8F80420E0
:105080006DE702EB0B014942C1F30B09494630467B
:10509000009200F013FC431CDDE900237FF4F2AE24
:1050A000D146F2E6542B26D8130B03F16F00C00053
:1050B0006E3341E7B3F5AA7F26D8EB0B03F17801F5
:1050C00003F17707CB00EFE5164B186858441860DA
:1050D000B4E6CAF30B0CBCF1000F7FF4AFAED8F806
:1050E0000840BB444BF001006060EFE61446EDE67B
:1050F000012353608FE7B3F5AA7F33D8D30B03F1B5
:105100007800C000773317E740F25452934233D807
:10511000AB0C03F17D0103F17C07CB00C4E500BFBC
:105120006013002030130020581300205C1300206F
:105130002806002030060020300A0020AAF1080AC4
:10514000D344ABEB020B4FF000099EE604F10801DB
:1051500030460093FBF793FED8F80840009B606848
:105160001968B3E640F2545083420AD8930C03F115
:105170007D00C0007C33DFE64FF47E737F217E2705
:1051800092E54FF47E707E23D6E6D8F804305DE7D2
:1051900001F0FF01102A2BDB10F0070F08D010F8E8
:1051A000013B013A8B422DD010F0070F42B3F6D1EC
:1051B000F0B441EA012141EA014122F007047FF005
:1051C00000070023F0E80256083C85EA010586EA5C
:1051D000010685FA47F5A3FA87F586FA47F6A5FA98
:1051E00087F68EB9EED1F0BC01F0FF0102F00702A4
:1051F00032B110F8013B013A83EA010313B1F8D14F
:105200000020704701387047002D06BF354603382F
:10521000073815F0010F07D1013015F4807F02BF68
:10522000013015F4C03F0130F0BC0138704700BFB9
:10523000844641EA000313F003036DD1403A41D3A1
:1052400051F8043B40F8043B51F8043B40F8043B60
:1052500051F8043B40F8043B51F8043B40F8043B50
:1052600051F8043B40F8043B51F8043B40F8043B40
:1052700051F8043B40F8043B51F8043B40F8043B30
:1052800051F8043B40F8043B51F8043B40F8043B20
:1052900051F8043B40F8043B51F8043B40F8043B10
:1052A00051F8043B40F8043B51F8043B40F8043B00
:1052B00051F8043B40F8043B51F8043B40F8043BF0
:1052C000403ABDD2303211D351F8043B40F8043B90
:1052D00051F8043B40F8043B51F8043B40F8043BD0
:1052E00051F8043B40F8043B103AEDD20C3205D3A0
:1052F00051F8043B40F8043B043AF9D2043208D098
:10530000D2071CBF11F8013B00F8013B01D30B8809
:1053100003806046704700BF082A13D38B078DD0E7
:1053200010F003038AD0C3F10403D21ADB071CBFB9
:1053300011F8013B00F8013B80D331F8023B20F823
:10534000023B7BE7043AD9D3013A11F8013B00F85C
:10535000013BF9D20B7803704B7843708B788370E4
:10536000604670478842F0B40DD98B1883420AD941
:10537000841832B1224613F8014D02F8014D9942CA
:10538000F9D1F0BC70470F2A0ED80346541E002AEC
:10539000F7D001340C44013B11F8012B03F8012F25
:1053A000A142F9D1F0BC704740EA01039B073FD10D
:1053B000A2F1100323F00F0401F1200727441B0979
:1053C00001F1100400F1100554F8106C45F8106C50
:1053D00054F80C6C45F80C6C54F8086C45F8086CE3
:1053E00054F8046C45F8046C1034BC4205F1100507
:1053F000EAD1013312F00C0F01EB031102F00F049C
:1054000000EB031317D0043C24F0030CA5089C44C4
:105410001C1F0E4656F8047B44F8047F6445F9D1FE
:105420006C1C03EB840301EB840102F00302ADE783
:10543000541E0346ADE72246A8E700BFF0B4860736
:1054400046D0541E002A3CD0CAB2034601E0013CBB
:1054500037D303F8012B9D07F9D1032C2AD9CDB2FC
:1054600045EA05250F2C45EA054534D9A4F110027B
:1054700022F00F0C03F120071609674403F1100214
:1054800042E9045542E902551032BA42F8D1721C81
:1054900014F00C0F03EB021204F00F0613D0331FAD
:1054A00023F003030433134442F8045B9342FBD11B
:1054B00006F003042CB1CAB21C4403F8012B9C4231
:1054C000FBD1F0BC704734461346002CF3D1F8E70B
:1054D00014460346C1E71A462646E0E72DE9F84F91
:1054E0001746002900F0BC8007F10B050C468046EA
:1054F000FBF7A6FF162D5FD810252A46AF4260D8CD
:1055000054F8041C21F003069642A4F1080980F225
:105510008680C94BD3F808C009EB0600844500F02B
:10552000BA80D0F804C02CF0010303445B68DB07A9
:1055300000F18B802CF0030C06EB0C03934280F2FD
:105540001681CB070FD454F8083CA9EB030ADAF80C
:10555000043023F003018C44B444944538DA7318C2
:10556000934280F2108139464046FBF77BFC0746A8
:10557000E0B154F8043C23F001034B44A0F10802CD
:10558000934200F0FA80321F242A00F21D81132A70
:1055900000F2CE80034622461168196051685960B6
:1055A00092689A6021464046FBF769FC4046FBF74B
:1055B0004BFF3846BDE8F88F25F00705002D2A4639
:1055C0009CDA0C23C8F8003000273846BDE8F88F75
:1055D000D0E902235746D3609A6057F8081FDAF8DB
:1055E0000C30CB60321F242A996000F20881132A04
:1055F00040F203812368CAF808306368CAF80C30A7
:105600001B2A00F21B8108340AF1100322681A6079
:1056100062685A60A2689A606646D1463C46731B2F
:105620000F2B22D8D9F8043003F0010333434E4442
:10563000C9F80430736843F001037360404627469D
:10564000FBF702FF3846BDE8F88FC9078BD454F842
:10565000083CA9EB030ADAF8041021F003017EE705
:10566000BDE8F84F1146FBF7FDBBD9F8042009EB64
:10567000050102F001024E4443F001031543C9F84D
:1056800004504B60736843F0010308317360404677
:10569000FBF7F5FBD2E7DCF8040020F0030B06EB88
:1056A0000B0C05F1100084454DDAC9073FF55BAFDF
:1056B00054F8081CA9EB010ADAF8041021F00301E0
:1056C0008B44B34458453FF74AAF5746DAF80C10BD
:1056D00057F8080F321F242AC160886000F2BC808E
:1056E000132A40F2B7802168CAF808106168CAF826
:1056F0000C101B2A00F2C08008340AF11002216845
:10570000116061685160A16891600AEB0501ABEB23
:10571000050242F0010299604A60DAF8043003F0B1
:1057200001031D434046CAF80450FBF78DFE4CE7C9
:1057300023680360636843601B2A49D804F10802A8
:1057400000F1080328E709EB0501ACEB050242F084
:10575000010299604A6054F8043C03F001031D43C0
:10576000404644F8045CFBF76FFE27462DE7D0E97E
:1057700002121E46CA60916051E750F8043C23F0C3
:1057800003031E444BE75746DAF80C1057F8080F8E
:10579000321F242AC160886027D8132A23D92168A0
:1057A000CAF808106168CAF80C101B2A2FD80834F0
:1057B0000AF110022168116061685160A16891606E
:1057C0001E46D1463C462AE72146FFF7CBFDE9E6D7
:1057D000A3688360E368C360242A24D004F1100224
:1057E00000F11003D8E63A46E4E7214638461E4663
:1057F000D146FFF7B7FD3C4611E73B4606E7214699
:1058000038466646D146FFF7ADFD3C4607E7A1683E
:10581000CAF81010E168CAF81410242A22D01034F3
:105820000AF11802C6E7236903616369436104F161
:10583000180200F11803AFE628060020A368CAF892
:105840001030E368CAF81430242A21D010340AF149
:105850001803DBE63A4652E721463846FFF782FD59
:10586000154B52E72269CAF818206269CAF81C2051
:1058700018340AF120029DE7A168CAF81010E16807
:10588000CAF81410242A0DD010340AF1180236E791
:105890002369CAF818306369CAF81C3018340AF151
:1058A0002003B3E62269CAF818206269CAF81C20EE
:1058B00018340AF1200222E72806002038B5074DE7
:1058C0000022044608462A60FBF796FD431C00D0E0
:1058D00038BD2B68002BFBD0236038BDC0130020DF
:1058E0000EB430B59CB01FAB0C4C0D4D53F8042BCF
:1058F0000193014602910691206802A96FF00044CD
:10590000CDE90445079400F0EBF8029B00221A70E1
:105910001CB0BDE8304003B0704700BFF801002064
:105920000802FFFF80EA0102844612F0030F4FD104
:1059300011F0030F32D14DF8044D11F0040F51F85E
:10594000043B0BD0A3F101329A4312F0803F04BF15
:105950004CF8043B51F8043B16D100BF51F8044BFE
:10596000A3F101329A4312F0803FA4F101320BD12E
:105970004CF8043BA24312F0803F04BF51F8043BB3
:105980004CF8044BEAD023460CF8013B13F0FF0F10
:105990004FEA3323F8D15DF8044B704711F0010F43
:1059A00006D011F8012B0CF8012B002A08BF704714
:1059B00011F0020FBFD031F8022B12F0FF0F16BF0B
:1059C0002CF8022B8CF8002012F47F4FB3D17047D3
:1059D00011F8012B0CF8012B002AF9D1704700BFF8
:1059E00000000000000000000000000000000000B7
:1059F00000000000000000000000000000000000A7
:105A000090F800F06DE9024520F007016FF0000CFE
:105A100010F0070491F820F040F049804FF00004A6
:105A20006FF00700D1E9002391F840F000F1080081
:105A300082FA4CF2A4FA8CF283FA4CF3A2FA8CF3B9
:105A40004BBBD1E9022382FA4CF200F10800A4FA20
:105A50008CF283FA4CF3A2FA8CF3E3B9D1E9042374
:105A600082FA4CF200F10800A4FA8CF283FA4CF3AB
:105A7000A2FA8CF37BB9D1E9062301F1200182FA65
:105A80004CF200F10800A4FA8CF283FA4CF3A2FA6B
:105A90008CF3002BC6D0002A04BF04301A4612BA79
:105AA000B2FA82F2FDE8024500EBD2007047D1E97C
:105AB000002304F00305C4F100004FEAC50514F00B
:105AC000040F91F840F00CFA05F562EA05021CBFDC
:105AD00063EA050362464FF00004A9E700000000F6
